{
  "abi": [
    {
      "inputs": [],
      "stateMutability": "nonpayable",
      "type": "constructor"
    },
    {
      "inputs": [
        {
          "internalType": "uint256",
          "name": "numOfTicketsToBuy",
          "type": "uint256"
        }
      ],
      "name": "BuyTickets",
      "outputs": [],
      "stateMutability": "payable",
      "type": "function"
    },
    {
      "inputs": [],
      "name": "CurrentWinningReward",
      "outputs": [
        {
          "internalType": "uint256",
          "name": "",
          "type": "uint256"
        }
      ],
      "stateMutability": "view",
      "type": "function"
    },
    {
      "inputs": [],
      "name": "DrawWinnerTicket",
      "outputs": [],
      "stateMutability": "nonpayable",
      "type": "function"
    },
    {
      "inputs": [],
      "name": "IsWinner",
      "outputs": [
        {
          "internalType": "bool",
          "name": "",
          "type": "bool"
        }
      ],
      "stateMutability": "view",
      "type": "function"
    },
    {
      "inputs": [],
      "name": "RefundAll",
      "outputs": [],
      "stateMutability": "nonpayable",
      "type": "function"
    },
    {
      "inputs": [],
      "name": "RemainingTickets",
      "outputs": [
        {
          "internalType": "uint256",
          "name": "",
          "type": "uint256"
        }
      ],
      "stateMutability": "view",
      "type": "function"
    },
    {
      "inputs": [],
      "name": "WithdrawCommission",
      "outputs": [],
      "stateMutability": "nonpayable",
      "type": "function"
    },
    {
      "inputs": [],
      "name": "WithdrawWinnings",
      "outputs": [],
      "stateMutability": "nonpayable",
      "type": "function"
    },
    {
      "inputs": [],
      "name": "checkWinningsAmount",
      "outputs": [
        {
          "internalType": "uint256",
          "name": "",
          "type": "uint256"
        }
      ],
      "stateMutability": "view",
      "type": "function"
    },
    {
      "inputs": [],
      "name": "duration",
      "outputs": [
        {
          "internalType": "uint256",
          "name": "",
          "type": "uint256"
        }
      ],
      "stateMutability": "view",
      "type": "function"
    },
    {
      "inputs": [],
      "name": "expiration",
      "outputs": [
        {
          "internalType": "uint256",
          "name": "",
          "type": "uint256"
        }
      ],
      "stateMutability": "view",
      "type": "function"
    },
    {
      "inputs": [],
      "name": "getTickets",
      "outputs": [
        {
          "internalType": "address[]",
          "name": "",
          "type": "address[]"
        }
      ],
      "stateMutability": "view",
      "type": "function"
    },
    {
      "inputs": [
        {
          "internalType": "address",
          "name": "addr",
          "type": "address"
        }
      ],
      "name": "getWinningsForAddress",
      "outputs": [
        {
          "internalType": "uint256",
          "name": "",
          "type": "uint256"
        }
      ],
      "stateMutability": "view",
      "type": "function"
    },
    {
      "inputs": [],
      "name": "lastWinner",
      "outputs": [
        {
          "internalType": "address",
          "name": "",
          "type": "address"
        }
      ],
      "stateMutability": "view",
      "type": "function"
    },
    {
      "inputs": [],
      "name": "lastWinnerAmount",
      "outputs": [
        {
          "internalType": "uint256",
          "name": "",
          "type": "uint256"
        }
      ],
      "stateMutability": "view",
      "type": "function"
    },
    {
      "inputs": [],
      "name": "lotteryOperator",
      "outputs": [
        {
          "internalType": "address",
          "name": "",
          "type": "address"
        }
      ],
      "stateMutability": "view",
      "type": "function"
    },
    {
      "inputs": [],
      "name": "maxTickets",
      "outputs": [
        {
          "internalType": "uint256",
          "name": "",
          "type": "uint256"
        }
      ],
      "stateMutability": "view",
      "type": "function"
    },
    {
      "inputs": [],
      "name": "operatorTotalCommission",
      "outputs": [
        {
          "internalType": "uint256",
          "name": "",
          "type": "uint256"
        }
      ],
      "stateMutability": "view",
      "type": "function"
    },
    {
      "inputs": [],
      "name": "restartDraw",
      "outputs": [],
      "stateMutability": "nonpayable",
      "type": "function"
    },
    {
      "inputs": [],
      "name": "ticketCommission",
      "outputs": [
        {
          "internalType": "uint256",
          "name": "",
          "type": "uint256"
        }
      ],
      "stateMutability": "view",
      "type": "function"
    },
    {
      "inputs": [],
      "name": "ticketPrice",
      "outputs": [
        {
          "internalType": "uint256",
          "name": "",
          "type": "uint256"
        }
      ],
      "stateMutability": "view",
      "type": "function"
    },
    {
      "inputs": [
        {
          "internalType": "uint256",
          "name": "",
          "type": "uint256"
        }
      ],
      "name": "tickets",
      "outputs": [
        {
          "internalType": "address",
          "name": "",
          "type": "address"
        }
      ],
      "stateMutability": "view",
      "type": "function"
    },
    {
      "inputs": [
        {
          "internalType": "address",
          "name": "",
          "type": "address"
        }
      ],
      "name": "winnings",
      "outputs": [
        {
          "internalType": "uint256",
          "name": "",
          "type": "uint256"
        }
      ],
      "stateMutability": "view",
      "type": "function"
    }
  ],
  "devdoc": {
    "kind": "dev",
    "methods": {},
    "version": 1
  },
  "evm": {
    "assembly": "    /* \"Lottery.sol\":122:4573  contract Lottery {... */\n  mstore(0x40, 0x80)\n    /* \"Lottery.sol\":643:644  0 */\n  0x00\n    /* \"Lottery.sol\":602:644  uint256 public operatorTotalCommission = 0 */\n  0x02\n  sstore\n    /* \"Lottery.sol\":1346:1454  constructor() {... */\n  callvalue\n  dup1\n  iszero\n  tag_1\n  jumpi\n  0x00\n  dup1\n  revert\ntag_1:\n  pop\n    /* \"Lottery.sol\":1370:1385  lotteryOperator */\n  0x01\n    /* \"Lottery.sol\":1370:1398  lotteryOperator = msg.sender */\n  dup1\n  sload\n  not(sub(shl(0xa0, 0x01), 0x01))\n  and\n    /* \"Lottery.sol\":1388:1398  msg.sender */\n  caller\n    /* \"Lottery.sol\":1370:1398  lotteryOperator = msg.sender */\n  or\n  swap1\n  sstore\n    /* \"Lottery.sol\":1421:1447  block.timestamp + duration */\n  tag_4\n    /* \"Lottery.sol\":396:406  30 minutes */\n  0x0708\n    /* \"Lottery.sol\":1421:1436  block.timestamp */\n  timestamp\n    /* \"Lottery.sol\":1421:1447  block.timestamp + duration */\n  tag_5\n  jump\t// in\ntag_4:\n    /* \"Lottery.sol\":1408:1418  expiration */\n  0x00\n    /* \"Lottery.sol\":1408:1447  expiration = block.timestamp + duration */\n  sstore\n    /* \"Lottery.sol\":122:4573  contract Lottery {... */\n  jump(tag_7)\n    /* \"#utility.yul\":14:236   */\ntag_5:\n    /* \"#utility.yul\":79:88   */\n  dup1\n  dup3\n  add\n    /* \"#utility.yul\":100:110   */\n  dup1\n  dup3\n  gt\n    /* \"#utility.yul\":97:230   */\n  iszero\n  tag_9\n  jumpi\n    /* \"#utility.yul\":152:162   */\n  0x4e487b71\n    /* \"#utility.yul\":147:150   */\n  0xe0\n    /* \"#utility.yul\":143:163   */\n  shl\n    /* \"#utility.yul\":140:141   */\n  0x00\n    /* \"#utility.yul\":133:164   */\n  mstore\n    /* \"#utility.yul\":187:191   */\n  0x11\n    /* \"#utility.yul\":184:185   */\n  0x04\n    /* \"#utility.yul\":177:192   */\n  mstore\n    /* \"#utility.yul\":215:219   */\n  0x24\n    /* \"#utility.yul\":212:213   */\n  0x00\n    /* \"#utility.yul\":205:220   */\n  revert\n    /* \"#utility.yul\":97:230   */\ntag_9:\n    /* \"#utility.yul\":14:236   */\n  swap3\n  swap2\n  pop\n  pop\n  jump\t// out\ntag_7:\n    /* \"Lottery.sol\":122:4573  contract Lottery {... */\n  dataSize(sub_0)\n  dup1\n  dataOffset(sub_0)\n  0x00\n  codecopy\n  0x00\n  return\nstop\n\nsub_0: assembly {\n        /* \"Lottery.sol\":122:4573  contract Lottery {... */\n      mstore(0x40, 0x80)\n      jumpi(tag_1, lt(calldatasize, 0x04))\n      shr(0xe0, calldataload(0x00))\n      dup1\n      0x6032a4f9\n      gt\n      tag_25\n      jumpi\n      dup1\n      0xba946d79\n      gt\n      tag_26\n      jumpi\n      dup1\n      0xea3a1499\n      gt\n      tag_27\n      jumpi\n      dup1\n      0xea3a1499\n      eq\n      tag_22\n      jumpi\n      dup1\n      0xf2613269\n      eq\n      tag_23\n      jumpi\n      dup1\n      0xfe188184\n      eq\n      tag_24\n      jumpi\n      0x00\n      dup1\n      revert\n    tag_27:\n      dup1\n      0xba946d79\n      eq\n      tag_19\n      jumpi\n      dup1\n      0xc6944fa0\n      eq\n      tag_20\n      jumpi\n      dup1\n      0xdd64e534\n      eq\n      tag_21\n      jumpi\n      0x00\n      dup1\n      revert\n    tag_26:\n      dup1\n      0x96c85ef3\n      gt\n      tag_28\n      jumpi\n      dup1\n      0x96c85ef3\n      eq\n      tag_16\n      jumpi\n      dup1\n      0x9b894703\n      eq\n      tag_17\n      jumpi\n      dup1\n      0xa88f4672\n      eq\n      tag_18\n      jumpi\n      0x00\n      dup1\n      revert\n    tag_28:\n      dup1\n      0x6032a4f9\n      eq\n      tag_13\n      jumpi\n      dup1\n      0x71827b7b\n      eq\n      tag_14\n      jumpi\n      dup1\n      0x93a563b5\n      eq\n      tag_15\n      jumpi\n      0x00\n      dup1\n      revert\n    tag_25:\n      dup1\n      0x4665096d\n      gt\n      tag_29\n      jumpi\n      dup1\n      0x50b44712\n      gt\n      tag_30\n      jumpi\n      dup1\n      0x50b44712\n      eq\n      tag_10\n      jumpi\n      dup1\n      0x59ab0306\n      eq\n      tag_11\n      jumpi\n      dup1\n      0x5a58acdd\n      eq\n      tag_12\n      jumpi\n      0x00\n      dup1\n      revert\n    tag_30:\n      dup1\n      0x4665096d\n      eq\n      tag_7\n      jumpi\n      dup1\n      0x4788af7c\n      eq\n      tag_8\n      jumpi\n      dup1\n      0x4ed02622\n      eq\n      tag_9\n      jumpi\n      0x00\n      dup1\n      revert\n    tag_29:\n      dup1\n      0x0fb5a6b4\n      gt\n      tag_31\n      jumpi\n      dup1\n      0x0fb5a6b4\n      eq\n      tag_4\n      jumpi\n      dup1\n      0x1209b1f6\n      eq\n      tag_5\n      jumpi\n      dup1\n      0x35580df2\n      eq\n      tag_6\n      jumpi\n      0x00\n      dup1\n      revert\n    tag_31:\n      dup1\n      0x06f7f3bf\n      eq\n      tag_2\n      jumpi\n      dup1\n      0x0789c607\n      eq\n      tag_3\n      jumpi\n    tag_1:\n      0x00\n      dup1\n      revert\n        /* \"Lottery.sol\":747:778  uint256 public lastWinnerAmount */\n    tag_2:\n      callvalue\n      dup1\n      iszero\n      tag_32\n      jumpi\n      0x00\n      dup1\n      revert\n    tag_32:\n      pop\n      tag_33\n      sload(0x04)\n      dup2\n      jump\n    tag_33:\n      mload(0x40)\n        /* \"#utility.yul\":160:185   */\n      swap1\n      dup2\n      mstore\n        /* \"#utility.yul\":148:150   */\n      0x20\n        /* \"#utility.yul\":133:151   */\n      add\n        /* \"Lottery.sol\":747:778  uint256 public lastWinnerAmount */\n    tag_35:\n      mload(0x40)\n      dup1\n      swap2\n      sub\n      swap1\n      return\n        /* \"Lottery.sol\":3184:3392  function checkWinningsAmount() public view returns (uint256) {... */\n    tag_3:\n      callvalue\n      dup1\n      iszero\n      tag_37\n      jumpi\n      0x00\n      dup1\n      revert\n    tag_37:\n      pop\n        /* \"Lottery.sol\":3288:3298  msg.sender */\n      caller\n        /* \"Lottery.sol\":3236:3243  uint256 */\n      0x00\n        /* \"Lottery.sol\":3336:3352  winnings[winner] */\n      swap1\n      dup2\n      mstore\n        /* \"Lottery.sol\":3336:3344  winnings */\n      0x05\n        /* \"Lottery.sol\":3336:3352  winnings[winner] */\n      0x20\n      mstore\n      0x40\n      swap1\n      keccak256\n      sload\n        /* \"Lottery.sol\":3184:3392  function checkWinningsAmount() public view returns (uint256) {... */\n      jump(tag_33)\n        /* \"Lottery.sol\":361:406  uint256 public constant duration = 30 minutes */\n    tag_4:\n      callvalue\n      dup1\n      iszero\n      tag_41\n      jumpi\n      0x00\n      dup1\n      revert\n    tag_41:\n      pop\n      tag_33\n        /* \"Lottery.sol\":396:406  30 minutes */\n      0x0708\n        /* \"Lottery.sol\":361:406  uint256 public constant duration = 30 minutes */\n      dup2\n      jump\n        /* \"Lottery.sol\":145:193  uint256 public constant ticketPrice = 0.01 ether */\n    tag_5:\n      callvalue\n      dup1\n      iszero\n      tag_45\n      jumpi\n      0x00\n      dup1\n      revert\n    tag_45:\n      pop\n      tag_33\n        /* \"Lottery.sol\":183:193  0.01 ether */\n      0x2386f26fc10000\n        /* \"Lottery.sol\":145:193  uint256 public constant ticketPrice = 0.01 ether */\n      dup2\n      jump\n        /* \"Lottery.sol\":3974:4235  function WithdrawCommission() public isOperator {... */\n    tag_6:\n      callvalue\n      dup1\n      iszero\n      tag_49\n      jumpi\n      0x00\n      dup1\n      revert\n    tag_49:\n      pop\n      tag_50\n      tag_51\n      jump\t// in\n    tag_50:\n      stop\n        /* \"Lottery.sol\":449:474  uint256 public expiration */\n    tag_7:\n      callvalue\n      dup1\n      iszero\n      tag_52\n      jumpi\n      0x00\n      dup1\n      revert\n    tag_52:\n      pop\n      tag_33\n      sload(0x00)\n      dup2\n      jump\n        /* \"Lottery.sol\":2248:2970  function DrawWinnerTicket() public isOperator {... */\n    tag_8:\n      callvalue\n      dup1\n      iszero\n      tag_56\n      jumpi\n      0x00\n      dup1\n      revert\n    tag_56:\n      pop\n      tag_50\n      tag_58\n      jump\t// in\n        /* \"Lottery.sol\":1490:1582  function getTickets() public view returns (address[] memory) {... */\n    tag_9:\n      callvalue\n      dup1\n      iszero\n      tag_59\n      jumpi\n      0x00\n      dup1\n      revert\n    tag_59:\n      pop\n      tag_60\n      tag_61\n      jump\t// in\n    tag_60:\n      mload(0x40)\n      tag_35\n      swap2\n      swap1\n      tag_63\n      jump\t// in\n        /* \"Lottery.sol\":913:937  address[] public tickets */\n    tag_10:\n      callvalue\n      dup1\n      iszero\n      tag_64\n      jumpi\n      0x00\n      dup1\n      revert\n    tag_64:\n      pop\n      tag_65\n      tag_66\n      calldatasize\n      0x04\n      tag_67\n      jump\t// in\n    tag_66:\n      tag_68\n      jump\t// in\n    tag_65:\n      mload(0x40)\n      sub(shl(0xa0, 0x01), 0x01)\n        /* \"#utility.yul\":1231:1286   */\n      swap1\n      swap2\n      and\n        /* \"#utility.yul\":1213:1287   */\n      dup2\n      mstore\n        /* \"#utility.yul\":1201:1203   */\n      0x20\n        /* \"#utility.yul\":1186:1204   */\n      add\n        /* \"Lottery.sol\":913:937  address[] public tickets */\n      tag_35\n        /* \"#utility.yul\":1067:1293   */\n      jump\n        /* \"Lottery.sol\":1704:2242  function BuyTickets(uint256 numOfTicketsToBuy) public payable {... */\n    tag_11:\n      tag_50\n      tag_72\n      calldatasize\n      0x04\n      tag_67\n      jump\t// in\n    tag_72:\n      tag_73\n      jump\t// in\n        /* \"Lottery.sol\":537:567  address public lotteryOperator */\n    tag_12:\n      callvalue\n      dup1\n      iszero\n      tag_74\n      jumpi\n      0x00\n      dup1\n      revert\n    tag_74:\n      pop\n      sload(0x01)\n      tag_65\n      swap1\n      sub(shl(0xa0, 0x01), 0x01)\n      and\n      dup2\n      jump\n        /* \"Lottery.sol\":277:331  uint256 public constant ticketCommission = 0.001 ether */\n    tag_13:\n      callvalue\n      dup1\n      iszero\n      tag_78\n      jumpi\n      0x00\n      dup1\n      revert\n    tag_78:\n      pop\n      tag_33\n        /* \"Lottery.sol\":320:331  0.001 ether */\n      0x038d7ea4c68000\n        /* \"Lottery.sol\":277:331  uint256 public constant ticketCommission = 0.001 ether */\n      dup2\n      jump\n        /* \"Lottery.sol\":3398:3629  function WithdrawWinnings() public isWinner {... */\n    tag_14:\n      callvalue\n      dup1\n      iszero\n      tag_82\n      jumpi\n      0x00\n      dup1\n      revert\n    tag_82:\n      pop\n      tag_50\n      tag_84\n      jump\t// in\n        /* \"Lottery.sol\":4462:4571  function RemainingTickets() public view returns (uint256) {... */\n    tag_15:\n      callvalue\n      dup1\n      iszero\n      tag_85\n      jumpi\n      0x00\n      dup1\n      revert\n    tag_85:\n      pop\n      tag_33\n      tag_87\n      jump\t// in\n        /* \"Lottery.sol\":4241:4336  function IsWinner() public view returns (bool) {... */\n    tag_16:\n      callvalue\n      dup1\n      iszero\n      tag_89\n      jumpi\n      0x00\n      dup1\n      revert\n    tag_89:\n      pop\n        /* \"Lottery.sol\":4314:4324  msg.sender */\n      caller\n        /* \"Lottery.sol\":4282:4286  bool */\n      0x00\n        /* \"Lottery.sol\":4305:4325  winnings[msg.sender] */\n      swap1\n      dup2\n      mstore\n        /* \"Lottery.sol\":4305:4313  winnings */\n      0x05\n        /* \"Lottery.sol\":4305:4325  winnings[msg.sender] */\n      0x20\n      mstore\n      0x40\n      swap1\n      keccak256\n      sload\n        /* \"Lottery.sol\":4305:4329  winnings[msg.sender] > 0 */\n      iszero\n      iszero\n        /* \"Lottery.sol\":4241:4336  function IsWinner() public view returns (bool) {... */\n      mload(0x40)\n        /* \"#utility.yul\":1463:1477   */\n      swap1\n      iszero\n        /* \"#utility.yul\":1456:1478   */\n      iszero\n        /* \"#utility.yul\":1438:1479   */\n      dup2\n      mstore\n        /* \"#utility.yul\":1426:1428   */\n      0x20\n        /* \"#utility.yul\":1411:1429   */\n      add\n        /* \"Lottery.sol\":4241:4336  function IsWinner() public view returns (bool) {... */\n      tag_35\n        /* \"#utility.yul\":1298:1485   */\n      jump\n        /* \"Lottery.sol\":199:240  uint256 public constant maxTickets = 1000 */\n    tag_17:\n      callvalue\n      dup1\n      iszero\n      tag_94\n      jumpi\n      0x00\n      dup1\n      revert\n    tag_94:\n      pop\n      tag_33\n        /* \"Lottery.sol\":236:240  1000 */\n      0x03e8\n        /* \"Lottery.sol\":199:240  uint256 public constant maxTickets = 1000 */\n      dup2\n      jump\n        /* \"Lottery.sol\":3635:3968  function RefundAll() public {... */\n    tag_18:\n      callvalue\n      dup1\n      iszero\n      tag_98\n      jumpi\n      0x00\n      dup1\n      revert\n    tag_98:\n      pop\n      tag_50\n      tag_100\n      jump\t// in\n        /* \"Lottery.sol\":602:644  uint256 public operatorTotalCommission = 0 */\n    tag_19:\n      callvalue\n      dup1\n      iszero\n      tag_101\n      jumpi\n      0x00\n      dup1\n      revert\n    tag_101:\n      pop\n      tag_33\n      sload(0x02)\n      dup2\n      jump\n        /* \"Lottery.sol\":4342:4456  function CurrentWinningReward() public view returns (uint256) {... */\n    tag_20:\n      callvalue\n      dup1\n      iszero\n      tag_105\n      jumpi\n      0x00\n      dup1\n      revert\n    tag_105:\n      pop\n      tag_33\n      tag_107\n      jump\t// in\n        /* \"Lottery.sol\":1588:1701  function getWinningsForAddress(address addr) public view returns (uint256) {... */\n    tag_21:\n      callvalue\n      dup1\n      iszero\n      tag_109\n      jumpi\n      0x00\n      dup1\n      revert\n    tag_109:\n      pop\n      tag_33\n      tag_111\n      calldatasize\n      0x04\n      tag_112\n      jump\t// in\n    tag_111:\n      sub(shl(0xa0, 0x01), 0x01)\n        /* \"Lottery.sol\":1680:1694  winnings[addr] */\n      and\n        /* \"Lottery.sol\":1654:1661  uint256 */\n      0x00\n        /* \"Lottery.sol\":1680:1694  winnings[addr] */\n      swap1\n      dup2\n      mstore\n        /* \"Lottery.sol\":1680:1688  winnings */\n      0x05\n        /* \"Lottery.sol\":1680:1694  winnings[addr] */\n      0x20\n      mstore\n      0x40\n      swap1\n      keccak256\n      sload\n      swap1\n        /* \"Lottery.sol\":1588:1701  function getWinningsForAddress(address addr) public view returns (uint256) {... */\n      jump\n        /* \"Lottery.sol\":826:869  mapping(address => uint256) public winnings */\n    tag_22:\n      callvalue\n      dup1\n      iszero\n      tag_115\n      jumpi\n      0x00\n      dup1\n      revert\n    tag_115:\n      pop\n      tag_33\n      tag_117\n      calldatasize\n      0x04\n      tag_112\n      jump\t// in\n    tag_117:\n      mstore(0x20, 0x05)\n      0x00\n      swap1\n      dup2\n      mstore\n      0x40\n      swap1\n      keccak256\n      sload\n      dup2\n      jump\n        /* \"Lottery.sol\":2976:3178  function restartDraw() public isOperator {... */\n    tag_23:\n      callvalue\n      dup1\n      iszero\n      tag_120\n      jumpi\n      0x00\n      dup1\n      revert\n    tag_120:\n      pop\n      tag_50\n      tag_122\n      jump\t// in\n        /* \"Lottery.sol\":682:707  address public lastWinner */\n    tag_24:\n      callvalue\n      dup1\n      iszero\n      tag_123\n      jumpi\n      0x00\n      dup1\n      revert\n    tag_123:\n      pop\n      sload(0x03)\n      tag_65\n      swap1\n      sub(shl(0xa0, 0x01), 0x01)\n      and\n      dup2\n      jump\n        /* \"Lottery.sol\":3974:4235  function WithdrawCommission() public isOperator {... */\n    tag_51:\n        /* \"Lottery.sol\":1100:1115  lotteryOperator */\n      and(sub(shl(0xa0, 0x01), 0x01), sload(0x01))\n        /* \"Lottery.sol\":1086:1096  msg.sender */\n      caller\n        /* \"Lottery.sol\":1086:1115  msg.sender == lotteryOperator */\n      eq\n        /* \"Lottery.sol\":1064:1176  require(... */\n      tag_129\n      jumpi\n      mload(0x40)\n      shl(0xe5, 0x461bcd)\n      dup2\n      mstore\n        /* \"#utility.yul\":2006:2008   */\n      0x20\n        /* \"Lottery.sol\":1064:1176  require(... */\n      0x04\n      dup3\n      add\n        /* \"#utility.yul\":1988:2009   */\n      mstore\n        /* \"#utility.yul\":2045:2047   */\n      0x22\n        /* \"#utility.yul\":2025:2043   */\n      0x24\n      dup3\n      add\n        /* \"#utility.yul\":2018:2048   */\n      mstore\n        /* \"#utility.yul\":2084:2118   */\n      0x43616c6c6572206973206e6f7420746865206c6f7474657279206f7065726174\n        /* \"#utility.yul\":2064:2082   */\n      0x44\n      dup3\n      add\n        /* \"#utility.yul\":2057:2119   */\n      mstore\n      shl(0xf1, 0x37b9)\n        /* \"#utility.yul\":2135:2153   */\n      0x64\n      dup3\n      add\n        /* \"#utility.yul\":2128:2160   */\n      mstore\n        /* \"#utility.yul\":2177:2196   */\n      0x84\n      add\n        /* \"Lottery.sol\":1064:1176  require(... */\n    tag_130:\n      mload(0x40)\n      dup1\n      swap2\n      sub\n      swap1\n      revert\n    tag_129:\n        /* \"Lottery.sol\":4119:4142  operatorTotalCommission */\n      0x02\n      dup1\n      sload\n        /* \"Lottery.sol\":4032:4056  address payable operator */\n      0x00\n        /* \"Lottery.sol\":4152:4179  operatorTotalCommission = 0 */\n      swap2\n      dup3\n      swap1\n      sstore\n        /* \"Lottery.sol\":4190:4228  operator.transfer(commission2Transfer) */\n      mload(0x40)\n        /* \"Lottery.sol\":4067:4077  msg.sender */\n      caller\n      swap3\n      dup4\n      swap2\n        /* \"Lottery.sol\":4190:4228  operator.transfer(commission2Transfer) */\n      dup4\n      iszero\n      0x08fc\n      mul\n      swap2\n        /* \"Lottery.sol\":4119:4142  operatorTotalCommission */\n      dup5\n      swap2\n        /* \"Lottery.sol\":4190:4228  operator.transfer(commission2Transfer) */\n      swap1\n      dup2\n        /* \"Lottery.sol\":4032:4056  address payable operator */\n      dup2\n        /* \"Lottery.sol\":4190:4228  operator.transfer(commission2Transfer) */\n      dup2\n        /* \"Lottery.sol\":4119:4142  operatorTotalCommission */\n      dup6\n        /* \"Lottery.sol\":4067:4077  msg.sender */\n      dup9\n        /* \"Lottery.sol\":4190:4228  operator.transfer(commission2Transfer) */\n      dup9\n      call\n      swap4\n      pop\n      pop\n      pop\n      pop\n      iszero\n      dup1\n      iszero\n      tag_134\n      jumpi\n      returndatasize\n      0x00\n      dup1\n      returndatacopy\n      revert(0x00, returndatasize)\n    tag_134:\n      pop\n        /* \"Lottery.sol\":4022:4235  {... */\n      pop\n      pop\n        /* \"Lottery.sol\":3974:4235  function WithdrawCommission() public isOperator {... */\n      jump\t// out\n        /* \"Lottery.sol\":2248:2970  function DrawWinnerTicket() public isOperator {... */\n    tag_58:\n        /* \"Lottery.sol\":1100:1115  lotteryOperator */\n      and(sub(shl(0xa0, 0x01), 0x01), sload(0x01))\n        /* \"Lottery.sol\":1086:1096  msg.sender */\n      caller\n        /* \"Lottery.sol\":1086:1115  msg.sender == lotteryOperator */\n      eq\n        /* \"Lottery.sol\":1064:1176  require(... */\n      tag_136\n      jumpi\n      mload(0x40)\n      shl(0xe5, 0x461bcd)\n      dup2\n      mstore\n        /* \"#utility.yul\":2006:2008   */\n      0x20\n        /* \"Lottery.sol\":1064:1176  require(... */\n      0x04\n      dup3\n      add\n        /* \"#utility.yul\":1988:2009   */\n      mstore\n        /* \"#utility.yul\":2045:2047   */\n      0x22\n        /* \"#utility.yul\":2025:2043   */\n      0x24\n      dup3\n      add\n        /* \"#utility.yul\":2018:2048   */\n      mstore\n        /* \"#utility.yul\":2084:2118   */\n      0x43616c6c6572206973206e6f7420746865206c6f7474657279206f7065726174\n        /* \"#utility.yul\":2064:2082   */\n      0x44\n      dup3\n      add\n        /* \"#utility.yul\":2057:2119   */\n      mstore\n      shl(0xf1, 0x37b9)\n        /* \"#utility.yul\":2135:2153   */\n      0x64\n      dup3\n      add\n        /* \"#utility.yul\":2128:2160   */\n      mstore\n        /* \"#utility.yul\":2177:2196   */\n      0x84\n      add\n        /* \"Lottery.sol\":1064:1176  require(... */\n      tag_130\n        /* \"#utility.yul\":1804:2202   */\n      jump\n        /* \"Lottery.sol\":1064:1176  require(... */\n    tag_136:\n        /* \"Lottery.sol\":2312:2319  tickets */\n      0x06\n        /* \"Lottery.sol\":2312:2326  tickets.length */\n      sload\n        /* \"Lottery.sol\":2304:2360  require(tickets.length > 0, \"No tickets were purchased\") */\n      tag_139\n      jumpi\n      mload(0x40)\n      shl(0xe5, 0x461bcd)\n      dup2\n      mstore\n        /* \"#utility.yul\":2409:2411   */\n      0x20\n        /* \"Lottery.sol\":2304:2360  require(tickets.length > 0, \"No tickets were purchased\") */\n      0x04\n      dup3\n      add\n        /* \"#utility.yul\":2391:2412   */\n      mstore\n        /* \"#utility.yul\":2448:2450   */\n      0x19\n        /* \"#utility.yul\":2428:2446   */\n      0x24\n      dup3\n      add\n        /* \"#utility.yul\":2421:2451   */\n      mstore\n        /* \"#utility.yul\":2487:2514   */\n      0x4e6f207469636b65747320776572652070757263686173656400000000000000\n        /* \"#utility.yul\":2467:2485   */\n      0x44\n      dup3\n      add\n        /* \"#utility.yul\":2460:2515   */\n      mstore\n        /* \"#utility.yul\":2532:2550   */\n      0x64\n      add\n        /* \"Lottery.sol\":2304:2360  require(tickets.length > 0, \"No tickets were purchased\") */\n      tag_130\n        /* \"#utility.yul\":2207:2556   */\n      jump\n        /* \"Lottery.sol\":2304:2360  require(tickets.length > 0, \"No tickets were purchased\") */\n    tag_139:\n        /* \"Lottery.sol\":2416:2423  tickets */\n      0x06\n        /* \"Lottery.sol\":2416:2430  tickets.length */\n      sload\n        /* \"Lottery.sol\":2371:2388  bytes32 blockHash */\n      0x00\n      swap1\n        /* \"Lottery.sol\":2401:2430  block.number - tickets.length */\n      tag_142\n      swap1\n        /* \"Lottery.sol\":2401:2413  block.number */\n      number\n        /* \"Lottery.sol\":2401:2430  block.number - tickets.length */\n      tag_143\n      jump\t// in\n    tag_142:\n        /* \"Lottery.sol\":2495:2539  abi.encodePacked(block.timestamp, blockHash) */\n      0x40\n      dup1\n      mload\n        /* \"Lottery.sol\":2512:2527  block.timestamp */\n      timestamp\n        /* \"Lottery.sol\":2495:2539  abi.encodePacked(block.timestamp, blockHash) */\n      0x20\n      dup3\n      add\n        /* \"#utility.yul\":2983:3002   */\n      mstore\n        /* \"Lottery.sol\":2391:2431  blockhash(block.number - tickets.length) */\n      swap2\n      blockhash\n        /* \"#utility.yul\":3018:3030   */\n      swap1\n      dup3\n      add\n        /* \"#utility.yul\":3011:3039   */\n      dup2\n      swap1\n      mstore\n        /* \"Lottery.sol\":2391:2431  blockhash(block.number - tickets.length) */\n      swap2\n      pop\n        /* \"Lottery.sol\":2441:2461  uint256 randomNumber */\n      0x00\n      swap1\n        /* \"#utility.yul\":3055:3067   */\n      0x60\n      add\n        /* \"Lottery.sol\":2495:2539  abi.encodePacked(block.timestamp, blockHash) */\n      0x40\n      dup1\n      mload\n      not(0x1f)\n      dup2\n      dup5\n      sub\n      add\n      dup2\n      mstore\n      swap2\n      swap1\n      mstore\n        /* \"Lottery.sol\":2485:2540  keccak256(abi.encodePacked(block.timestamp, blockHash)) */\n      dup1\n      mload\n        /* \"Lottery.sol\":2495:2539  abi.encodePacked(block.timestamp, blockHash) */\n      0x20\n        /* \"Lottery.sol\":2485:2540  keccak256(abi.encodePacked(block.timestamp, blockHash)) */\n      swap1\n      swap2\n      add\n      keccak256\n        /* \"Lottery.sol\":2599:2606  tickets */\n      0x06\n        /* \"Lottery.sol\":2599:2613  tickets.length */\n      sload\n        /* \"Lottery.sol\":2485:2540  keccak256(abi.encodePacked(block.timestamp, blockHash)) */\n      swap1\n      swap2\n      pop\n        /* \"Lottery.sol\":2464:2550  uint256(... */\n      0x00\n      swap1\n        /* \"Lottery.sol\":2584:2613  randomNumber % tickets.length */\n      tag_146\n      swap1\n        /* \"Lottery.sol\":2485:2540  keccak256(abi.encodePacked(block.timestamp, blockHash)) */\n      dup4\n        /* \"Lottery.sol\":2584:2613  randomNumber % tickets.length */\n      tag_147\n      jump\t// in\n    tag_146:\n        /* \"Lottery.sol\":2560:2613  uint256 winningTicket = randomNumber % tickets.length */\n      swap1\n      pop\n        /* \"Lottery.sol\":2624:2638  address winner */\n      0x00\n        /* \"Lottery.sol\":2641:2648  tickets */\n      0x06\n        /* \"Lottery.sol\":2649:2662  winningTicket */\n      dup3\n        /* \"Lottery.sol\":2641:2663  tickets[winningTicket] */\n      dup2\n      sload\n      dup2\n      lt\n      tag_149\n      jumpi\n      tag_149\n      tag_150\n      jump\t// in\n    tag_149:\n      0x00\n      swap2\n      dup3\n      mstore\n      0x20\n      swap1\n      swap2\n      keccak256\n      add\n      sload\n        /* \"Lottery.sol\":2673:2683  lastWinner */\n      0x03\n        /* \"Lottery.sol\":2673:2692  lastWinner = winner */\n      dup1\n      sload\n      not(0xffffffffffffffffffffffffffffffffffffffff)\n      and\n      sub(shl(0xa0, 0x01), 0x01)\n        /* \"Lottery.sol\":2641:2663  tickets[winningTicket] */\n      swap1\n      swap3\n      and\n        /* \"Lottery.sol\":2673:2692  lastWinner = winner */\n      swap2\n      dup3\n      or\n      swap1\n      sstore\n        /* \"Lottery.sol\":2641:2663  tickets[winningTicket] */\n      swap1\n      pop\n        /* \"Lottery.sol\":2741:2771  ticketPrice - ticketCommission */\n      tag_152\n        /* \"Lottery.sol\":320:331  0.001 ether */\n      0x038d7ea4c68000\n        /* \"Lottery.sol\":183:193  0.01 ether */\n      0x2386f26fc10000\n        /* \"Lottery.sol\":2741:2771  ticketPrice - ticketCommission */\n      tag_143\n      jump\t// in\n    tag_152:\n        /* \"Lottery.sol\":2723:2730  tickets */\n      0x06\n        /* \"Lottery.sol\":2723:2737  tickets.length */\n      sload\n        /* \"Lottery.sol\":2723:2772  tickets.length * (ticketPrice - ticketCommission) */\n      tag_153\n      swap2\n      swap1\n      tag_154\n      jump\t// in\n    tag_153:\n      sub(shl(0xa0, 0x01), 0x01)\n        /* \"Lottery.sol\":2702:2718  winnings[winner] */\n      dup3\n      and\n      0x00\n      swap1\n      dup2\n      mstore\n        /* \"Lottery.sol\":2702:2710  winnings */\n      0x05\n        /* \"Lottery.sol\":2702:2718  winnings[winner] */\n      0x20\n      mstore\n      0x40\n      dup2\n      keccak256\n        /* \"Lottery.sol\":2702:2773  winnings[winner] += (tickets.length * (ticketPrice - ticketCommission)) */\n      dup1\n      sload\n        /* \"Lottery.sol\":2702:2718  winnings[winner] */\n      swap1\n      swap2\n      swap1\n        /* \"Lottery.sol\":2702:2773  winnings[winner] += (tickets.length * (ticketPrice - ticketCommission)) */\n      tag_155\n      swap1\n      dup5\n      swap1\n      tag_156\n      jump\t// in\n    tag_155:\n      swap1\n      swap2\n      sstore\n      pop\n      pop\n      sub(shl(0xa0, 0x01), 0x01)\n        /* \"Lottery.sol\":2802:2818  winnings[winner] */\n      dup2\n      and\n      0x00\n      swap1\n      dup2\n      mstore\n        /* \"Lottery.sol\":2802:2810  winnings */\n      0x05\n        /* \"Lottery.sol\":2802:2818  winnings[winner] */\n      0x20\n      mstore\n      0x40\n      swap1\n      keccak256\n      sload\n        /* \"Lottery.sol\":2783:2799  lastWinnerAmount */\n      0x04\n        /* \"Lottery.sol\":2783:2818  lastWinnerAmount = winnings[winner] */\n      sstore\n        /* \"Lottery.sol\":2856:2863  tickets */\n      0x06\n        /* \"Lottery.sol\":2856:2870  tickets.length */\n      sload\n        /* \"Lottery.sol\":2856:2889  tickets.length * ticketCommission */\n      tag_157\n      swap1\n        /* \"Lottery.sol\":320:331  0.001 ether */\n      0x038d7ea4c68000\n      swap1\n        /* \"Lottery.sol\":2856:2889  tickets.length * ticketCommission */\n      tag_154\n      jump\t// in\n    tag_157:\n        /* \"Lottery.sol\":2828:2851  operatorTotalCommission */\n      0x02\n      0x00\n        /* \"Lottery.sol\":2828:2890  operatorTotalCommission += (tickets.length * ticketCommission) */\n      dup3\n      dup3\n      sload\n      tag_158\n      swap2\n      swap1\n      tag_156\n      jump\t// in\n    tag_158:\n      swap1\n      swap2\n      sstore\n      pop\n        /* \"Lottery.sol\":2900:2914  delete tickets */\n      tag_159\n      swap1\n      pop\n        /* \"Lottery.sol\":2907:2914  tickets */\n      0x06\n      0x00\n        /* \"Lottery.sol\":2900:2914  delete tickets */\n      tag_160\n      jump\t// in\n    tag_159:\n        /* \"Lottery.sol\":2937:2963  block.timestamp + duration */\n      tag_161\n        /* \"Lottery.sol\":396:406  30 minutes */\n      0x0708\n        /* \"Lottery.sol\":2937:2952  block.timestamp */\n      timestamp\n        /* \"Lottery.sol\":2937:2963  block.timestamp + duration */\n      tag_156\n      jump\t// in\n    tag_161:\n        /* \"Lottery.sol\":2924:2934  expiration */\n      0x00\n        /* \"Lottery.sol\":2924:2963  expiration = block.timestamp + duration */\n      sstore\n      pop\n      pop\n      pop\n      pop\n        /* \"Lottery.sol\":2248:2970  function DrawWinnerTicket() public isOperator {... */\n      jump\t// out\n        /* \"Lottery.sol\":1490:1582  function getTickets() public view returns (address[] memory) {... */\n    tag_61:\n        /* \"Lottery.sol\":1533:1549  address[] memory */\n      0x60\n        /* \"Lottery.sol\":1568:1575  tickets */\n      0x06\n        /* \"Lottery.sol\":1561:1575  return tickets */\n      dup1\n      sload\n      dup1\n      0x20\n      mul\n      0x20\n      add\n      mload(0x40)\n      swap1\n      dup2\n      add\n      0x40\n      mstore\n      dup1\n      swap3\n      swap2\n      swap1\n      dup2\n      dup2\n      mstore\n      0x20\n      add\n      dup3\n      dup1\n      sload\n      dup1\n      iszero\n      tag_163\n      jumpi\n      0x20\n      mul\n      dup3\n      add\n      swap2\n      swap1\n      0x00\n      mstore\n      keccak256(0x00, 0x20)\n      swap1\n    tag_164:\n      dup2\n      sload\n      sub(shl(0xa0, 0x01), 0x01)\n      and\n      dup2\n      mstore\n      0x01\n      swap1\n      swap2\n      add\n      swap1\n      0x20\n      add\n      dup1\n      dup4\n      gt\n      tag_164\n      jumpi\n    tag_163:\n      pop\n      pop\n      pop\n      pop\n      pop\n      swap1\n      pop\n        /* \"Lottery.sol\":1490:1582  function getTickets() public view returns (address[] memory) {... */\n      swap1\n      jump\t// out\n        /* \"Lottery.sol\":913:937  address[] public tickets */\n    tag_68:\n      0x06\n      dup2\n      dup2\n      sload\n      dup2\n      lt\n      tag_165\n      jumpi\n      0x00\n      dup1\n      revert\n    tag_165:\n      0x00\n      swap2\n      dup3\n      mstore\n      0x20\n      swap1\n      swap2\n      keccak256\n      add\n      sload\n      sub(shl(0xa0, 0x01), 0x01)\n      and\n      swap1\n      pop\n      dup2\n      jump\t// out\n        /* \"Lottery.sol\":1704:2242  function BuyTickets(uint256 numOfTicketsToBuy) public payable {... */\n    tag_73:\n        /* \"Lottery.sol\":1798:1829  numOfTicketsToBuy * ticketPrice */\n      tag_168\n        /* \"Lottery.sol\":183:193  0.01 ether */\n      0x2386f26fc10000\n        /* \"Lottery.sol\":1798:1815  numOfTicketsToBuy */\n      dup3\n        /* \"Lottery.sol\":1798:1829  numOfTicketsToBuy * ticketPrice */\n      tag_154\n      jump\t// in\n    tag_168:\n        /* \"Lottery.sol\":1785:1794  msg.value */\n      callvalue\n        /* \"Lottery.sol\":1785:1829  msg.value == numOfTicketsToBuy * ticketPrice */\n      eq\n        /* \"Lottery.sol\":1894:1943  Strings.toString(numOfTicketsToBuy * ticketPrice) */\n      tag_169\n        /* \"Lottery.sol\":1911:1942  numOfTicketsToBuy * ticketPrice */\n      tag_170\n        /* \"Lottery.sol\":183:193  0.01 ether */\n      0x2386f26fc10000\n        /* \"Lottery.sol\":1911:1928  numOfTicketsToBuy */\n      dup5\n        /* \"Lottery.sol\":1911:1942  numOfTicketsToBuy * ticketPrice */\n      tag_154\n      jump\t// in\n    tag_170:\n        /* \"Lottery.sol\":1894:1910  Strings.toString */\n      tag_171\n        /* \"Lottery.sol\":1894:1943  Strings.toString(numOfTicketsToBuy * ticketPrice) */\n      jump\t// in\n    tag_169:\n        /* \"Lottery.sol\":1987:2022  Strings.toString(numOfTicketsToBuy) */\n      tag_172\n        /* \"Lottery.sol\":2004:2021  numOfTicketsToBuy */\n      dup4\n        /* \"Lottery.sol\":1987:2003  Strings.toString */\n      tag_171\n        /* \"Lottery.sol\":1987:2022  Strings.toString(numOfTicketsToBuy) */\n      jump\t// in\n    tag_172:\n        /* \"Lottery.sol\":1837:2053  string.concat(... */\n      add(0x20, mload(0x40))\n      tag_173\n      swap3\n      swap2\n      swap1\n      tag_174\n      jump\t// in\n    tag_173:\n      mload(0x40)\n      0x20\n      dup2\n      dup4\n      sub\n      sub\n      dup2\n      mstore\n      swap1\n      0x40\n      mstore\n        /* \"Lottery.sol\":1770:2057  require(... */\n      swap1\n      tag_175\n      jumpi\n      mload(0x40)\n      shl(0xe5, 0x461bcd)\n      dup2\n      mstore\n      0x04\n      add\n      tag_130\n      swap2\n      swap1\n      tag_177\n      jump\t// in\n    tag_175:\n      pop\n        /* \"Lottery.sol\":2094:2112  RemainingTickets() */\n      tag_178\n        /* \"Lottery.sol\":2094:2110  RemainingTickets */\n      tag_87\n        /* \"Lottery.sol\":2094:2112  RemainingTickets() */\n      jump\t// in\n    tag_178:\n        /* \"Lottery.sol\":2073:2090  numOfTicketsToBuy */\n      dup2\n        /* \"Lottery.sol\":2073:2112  numOfTicketsToBuy <= RemainingTickets() */\n      gt\n      iszero\n        /* \"Lottery.sol\":2061:2152  require(... */\n      tag_179\n      jumpi\n      mload(0x40)\n      shl(0xe5, 0x461bcd)\n      dup2\n      mstore\n        /* \"#utility.yul\":5565:5567   */\n      0x20\n        /* \"Lottery.sol\":2061:2152  require(... */\n      0x04\n      dup3\n      add\n        /* \"#utility.yul\":5547:5568   */\n      mstore\n        /* \"#utility.yul\":5604:5606   */\n      0x1d\n        /* \"#utility.yul\":5584:5602   */\n      0x24\n      dup3\n      add\n        /* \"#utility.yul\":5577:5607   */\n      mstore\n        /* \"#utility.yul\":5643:5674   */\n      0x4e6f7420656e6f756768207469636b65747320617661696c61626c652e000000\n        /* \"#utility.yul\":5623:5641   */\n      0x44\n      dup3\n      add\n        /* \"#utility.yul\":5616:5675   */\n      mstore\n        /* \"#utility.yul\":5692:5710   */\n      0x64\n      add\n        /* \"Lottery.sol\":2061:2152  require(... */\n      tag_130\n        /* \"#utility.yul\":5363:5716   */\n      jump\n        /* \"Lottery.sol\":2061:2152  require(... */\n    tag_179:\n        /* \"Lottery.sol\":2162:2171  uint256 i */\n      0x00\n        /* \"Lottery.sol\":2157:2239  for (uint256 i = 0; i < numOfTicketsToBuy; i++) {... */\n    tag_182:\n        /* \"Lottery.sol\":2181:2198  numOfTicketsToBuy */\n      dup2\n        /* \"Lottery.sol\":2177:2178  i */\n      dup2\n        /* \"Lottery.sol\":2177:2198  i < numOfTicketsToBuy */\n      lt\n        /* \"Lottery.sol\":2157:2239  for (uint256 i = 0; i < numOfTicketsToBuy; i++) {... */\n      iszero\n      tag_183\n      jumpi\n        /* \"Lottery.sol\":2210:2217  tickets */\n      0x06\n        /* \"Lottery.sol\":2210:2234  tickets.push(msg.sender) */\n      dup1\n      sload\n      0x01\n      dup2\n      add\n      dup3\n      sstore\n      0x00\n      swap2\n      swap1\n      swap2\n      mstore\n      0xf652222313e28459528d920b65115c16c04f3efc82aaedc97be59f3f377c0d3f\n      add\n      dup1\n      sload\n      not(0xffffffffffffffffffffffffffffffffffffffff)\n      and\n        /* \"Lottery.sol\":2223:2233  msg.sender */\n      caller\n        /* \"Lottery.sol\":2210:2234  tickets.push(msg.sender) */\n      or\n      swap1\n      sstore\n        /* \"Lottery.sol\":2200:2203  i++ */\n      dup1\n      tag_186\n      dup2\n      tag_187\n      jump\t// in\n    tag_186:\n      swap2\n      pop\n      pop\n        /* \"Lottery.sol\":2157:2239  for (uint256 i = 0; i < numOfTicketsToBuy; i++) {... */\n      jump(tag_182)\n    tag_183:\n      pop\n        /* \"Lottery.sol\":1704:2242  function BuyTickets(uint256 numOfTicketsToBuy) public payable {... */\n      pop\n      jump\t// out\n        /* \"Lottery.sol\":3398:3629  function WithdrawWinnings() public isWinner {... */\n    tag_84:\n        /* \"Lottery.sol\":4314:4324  msg.sender */\n      caller\n        /* \"Lottery.sol\":4282:4286  bool */\n      0x00\n        /* \"Lottery.sol\":4305:4325  winnings[msg.sender] */\n      swap1\n      dup2\n      mstore\n        /* \"Lottery.sol\":4305:4313  winnings */\n      0x05\n        /* \"Lottery.sol\":4305:4325  winnings[msg.sender] */\n      0x20\n      mstore\n      0x40\n      swap1\n      keccak256\n      sload\n        /* \"Lottery.sol\":1277:1322  require(IsWinner(), \"Caller is not a winner\") */\n      tag_190\n      jumpi\n      mload(0x40)\n      shl(0xe5, 0x461bcd)\n      dup2\n      mstore\n        /* \"#utility.yul\":6063:6065   */\n      0x20\n        /* \"Lottery.sol\":1277:1322  require(IsWinner(), \"Caller is not a winner\") */\n      0x04\n      dup3\n      add\n        /* \"#utility.yul\":6045:6066   */\n      mstore\n        /* \"#utility.yul\":6102:6104   */\n      0x16\n        /* \"#utility.yul\":6082:6100   */\n      0x24\n      dup3\n      add\n        /* \"#utility.yul\":6075:6105   */\n      mstore\n        /* \"#utility.yul\":6141:6165   */\n      0x43616c6c6572206973206e6f7420612077696e6e657200000000000000000000\n        /* \"#utility.yul\":6121:6139   */\n      0x44\n      dup3\n      add\n        /* \"#utility.yul\":6114:6166   */\n      mstore\n        /* \"#utility.yul\":6183:6201   */\n      0x64\n      add\n        /* \"Lottery.sol\":1277:1322  require(IsWinner(), \"Caller is not a winner\") */\n      tag_130\n        /* \"#utility.yul\":5861:6207   */\n      jump\n        /* \"Lottery.sol\":1277:1322  require(IsWinner(), \"Caller is not a winner\") */\n    tag_190:\n        /* \"Lottery.sol\":3485:3495  msg.sender */\n      caller\n        /* \"Lottery.sol\":3452:3474  address payable winner */\n      0x00\n        /* \"Lottery.sol\":3533:3549  winnings[winner] */\n      dup2\n      dup2\n      mstore\n        /* \"Lottery.sol\":3533:3541  winnings */\n      0x05\n        /* \"Lottery.sol\":3533:3549  winnings[winner] */\n      0x20\n      mstore\n      0x40\n      dup1\n      dup3\n      keccak256\n      dup1\n      sload\n        /* \"Lottery.sol\":3559:3579  winnings[winner] = 0 */\n      swap1\n      dup4\n      swap1\n      sstore\n        /* \"Lottery.sol\":3590:3622  winner.transfer(reward2Transfer) */\n      swap1\n      mload\n        /* \"Lottery.sol\":3533:3549  winnings[winner] */\n      swap1\n      swap2\n        /* \"Lottery.sol\":3485:3495  msg.sender */\n      dup4\n      swap2\n        /* \"Lottery.sol\":3590:3622  winner.transfer(reward2Transfer) */\n      dup4\n      iszero\n      0x08fc\n      mul\n      swap2\n        /* \"Lottery.sol\":3533:3549  winnings[winner] */\n      dup5\n      swap2\n        /* \"Lottery.sol\":3590:3622  winner.transfer(reward2Transfer) */\n      swap1\n      dup2\n        /* \"Lottery.sol\":3452:3474  address payable winner */\n      dup2\n        /* \"Lottery.sol\":3590:3622  winner.transfer(reward2Transfer) */\n      dup2\n        /* \"Lottery.sol\":3533:3549  winnings[winner] */\n      dup6\n        /* \"Lottery.sol\":3485:3495  msg.sender */\n      dup9\n        /* \"Lottery.sol\":3590:3622  winner.transfer(reward2Transfer) */\n      dup9\n      call\n      swap4\n      pop\n      pop\n      pop\n      pop\n      iszero\n      dup1\n      iszero\n      tag_134\n      jumpi\n      returndatasize\n      0x00\n      dup1\n      returndatacopy\n      revert(0x00, returndatasize)\n        /* \"Lottery.sol\":4462:4571  function RemainingTickets() public view returns (uint256) {... */\n    tag_87:\n        /* \"Lottery.sol\":4550:4557  tickets */\n      0x06\n        /* \"Lottery.sol\":4550:4564  tickets.length */\n      sload\n        /* \"Lottery.sol\":4511:4518  uint256 */\n      0x00\n      swap1\n        /* \"Lottery.sol\":4537:4564  maxTickets - tickets.length */\n      tag_197\n      swap1\n        /* \"Lottery.sol\":236:240  1000 */\n      0x03e8\n        /* \"Lottery.sol\":4537:4564  maxTickets - tickets.length */\n      tag_143\n      jump\t// in\n    tag_197:\n        /* \"Lottery.sol\":4530:4564  return maxTickets - tickets.length */\n      swap1\n      pop\n        /* \"Lottery.sol\":4462:4571  function RemainingTickets() public view returns (uint256) {... */\n      swap1\n      jump\t// out\n        /* \"Lottery.sol\":3635:3968  function RefundAll() public {... */\n    tag_100:\n        /* \"Lottery.sol\":3700:3710  expiration */\n      sload(0x00)\n        /* \"Lottery.sol\":3681:3696  block.timestamp */\n      timestamp\n        /* \"Lottery.sol\":3681:3710  block.timestamp >= expiration */\n      lt\n      iszero\n        /* \"Lottery.sol\":3673:3742  require(block.timestamp >= expiration, \"the lottery not expired yet\") */\n      tag_200\n      jumpi\n      mload(0x40)\n      shl(0xe5, 0x461bcd)\n      dup2\n      mstore\n        /* \"#utility.yul\":6414:6416   */\n      0x20\n        /* \"Lottery.sol\":3673:3742  require(block.timestamp >= expiration, \"the lottery not expired yet\") */\n      0x04\n      dup3\n      add\n        /* \"#utility.yul\":6396:6417   */\n      mstore\n        /* \"#utility.yul\":6453:6455   */\n      0x1b\n        /* \"#utility.yul\":6433:6451   */\n      0x24\n      dup3\n      add\n        /* \"#utility.yul\":6426:6456   */\n      mstore\n        /* \"#utility.yul\":6492:6521   */\n      0x746865206c6f7474657279206e6f742065787069726564207965740000000000\n        /* \"#utility.yul\":6472:6490   */\n      0x44\n      dup3\n      add\n        /* \"#utility.yul\":6465:6522   */\n      mstore\n        /* \"#utility.yul\":6539:6557   */\n      0x64\n      add\n        /* \"Lottery.sol\":3673:3742  require(block.timestamp >= expiration, \"the lottery not expired yet\") */\n      tag_130\n        /* \"#utility.yul\":6212:6563   */\n      jump\n        /* \"Lottery.sol\":3673:3742  require(block.timestamp >= expiration, \"the lottery not expired yet\") */\n    tag_200:\n        /* \"Lottery.sol\":3758:3767  uint256 i */\n      0x00\n        /* \"Lottery.sol\":3753:3938  for (uint256 i = 0; i < tickets.length; i++) {... */\n    tag_203:\n        /* \"Lottery.sol\":3777:3784  tickets */\n      0x06\n        /* \"Lottery.sol\":3777:3791  tickets.length */\n      sload\n        /* \"Lottery.sol\":3773:3791  i < tickets.length */\n      dup2\n      lt\n        /* \"Lottery.sol\":3753:3938  for (uint256 i = 0; i < tickets.length; i++) {... */\n      iszero\n      tag_204\n      jumpi\n        /* \"Lottery.sol\":3812:3830  address payable to */\n      0x00\n        /* \"Lottery.sol\":3841:3848  tickets */\n      0x06\n        /* \"Lottery.sol\":3849:3850  i */\n      dup3\n        /* \"Lottery.sol\":3841:3851  tickets[i] */\n      dup2\n      sload\n      dup2\n      lt\n      tag_207\n      jumpi\n      tag_207\n      tag_150\n      jump\t// in\n    tag_207:\n      0x00\n      swap2\n      dup3\n      mstore\n      0x20\n      dup3\n      keccak256\n      add\n      sload\n        /* \"Lottery.sol\":3866:3873  tickets */\n      0x06\n        /* \"Lottery.sol\":3866:3876  tickets[i] */\n      dup1\n      sload\n      sub(shl(0xa0, 0x01), 0x01)\n        /* \"Lottery.sol\":3841:3851  tickets[i] */\n      swap1\n      swap3\n      and\n      swap4\n      pop\n        /* \"Lottery.sol\":3866:3873  tickets */\n      swap1\n        /* \"Lottery.sol\":3874:3875  i */\n      dup5\n      swap1\n        /* \"Lottery.sol\":3866:3876  tickets[i] */\n      dup2\n      lt\n      tag_210\n      jumpi\n      tag_210\n      tag_150\n      jump\t// in\n    tag_210:\n      0x00\n      swap2\n      dup3\n      mstore\n      0x20\n      dup3\n      keccak256\n      add\n        /* \"Lottery.sol\":3866:3889  tickets[i] = address(0) */\n      dup1\n      sload\n      not(0xffffffffffffffffffffffffffffffffffffffff)\n      and\n      sub(shl(0xa0, 0x01), 0x01)\n      swap4\n      dup5\n      and\n      or\n      swap1\n      sstore\n        /* \"Lottery.sol\":3903:3927  to.transfer(ticketPrice) */\n      mload(0x40)\n        /* \"Lottery.sol\":3903:3914  to.transfer */\n      swap2\n      dup4\n      and\n      swap2\n        /* \"Lottery.sol\":183:193  0.01 ether */\n      0x2386f26fc10000\n      swap1\n        /* \"Lottery.sol\":3866:3876  tickets[i] */\n      dup3\n        /* \"Lottery.sol\":3903:3927  to.transfer(ticketPrice) */\n      dup2\n        /* \"Lottery.sol\":3866:3876  tickets[i] */\n      dup2\n        /* \"Lottery.sol\":3903:3927  to.transfer(ticketPrice) */\n      dup2\n        /* \"Lottery.sol\":183:193  0.01 ether */\n      dup6\n        /* \"Lottery.sol\":3903:3914  to.transfer */\n      dup9\n        /* \"Lottery.sol\":3866:3876  tickets[i] */\n      dup4\n        /* \"Lottery.sol\":3903:3927  to.transfer(ticketPrice) */\n      call\n      swap4\n      pop\n      pop\n      pop\n      pop\n      iszero\n      dup1\n      iszero\n      tag_213\n      jumpi\n      returndatasize\n      0x00\n      dup1\n      returndatacopy\n      revert(0x00, returndatasize)\n    tag_213:\n      pop\n        /* \"Lottery.sol\":3798:3938  {... */\n      pop\n        /* \"Lottery.sol\":3793:3796  i++ */\n      dup1\n      dup1\n      tag_214\n      swap1\n      tag_187\n      jump\t// in\n    tag_214:\n      swap2\n      pop\n      pop\n        /* \"Lottery.sol\":3753:3938  for (uint256 i = 0; i < tickets.length; i++) {... */\n      jump(tag_203)\n    tag_204:\n      pop\n        /* \"Lottery.sol\":3947:3961  delete tickets */\n      tag_215\n        /* \"Lottery.sol\":3954:3961  tickets */\n      0x06\n      0x00\n        /* \"Lottery.sol\":3947:3961  delete tickets */\n      tag_160\n      jump\t// in\n    tag_215:\n        /* \"Lottery.sol\":3635:3968  function RefundAll() public {... */\n      jump\t// out\n        /* \"Lottery.sol\":4342:4456  function CurrentWinningReward() public view returns (uint256) {... */\n    tag_107:\n        /* \"Lottery.sol\":4421:4428  tickets */\n      0x06\n        /* \"Lottery.sol\":4421:4435  tickets.length */\n      sload\n        /* \"Lottery.sol\":4395:4402  uint256 */\n      0x00\n      swap1\n        /* \"Lottery.sol\":4421:4449  tickets.length * ticketPrice */\n      tag_197\n      swap1\n        /* \"Lottery.sol\":183:193  0.01 ether */\n      0x2386f26fc10000\n      swap1\n        /* \"Lottery.sol\":4421:4449  tickets.length * ticketPrice */\n      tag_154\n      jump\t// in\n        /* \"Lottery.sol\":2976:3178  function restartDraw() public isOperator {... */\n    tag_122:\n        /* \"Lottery.sol\":1100:1115  lotteryOperator */\n      and(sub(shl(0xa0, 0x01), 0x01), sload(0x01))\n        /* \"Lottery.sol\":1086:1096  msg.sender */\n      caller\n        /* \"Lottery.sol\":1086:1115  msg.sender == lotteryOperator */\n      eq\n        /* \"Lottery.sol\":1064:1176  require(... */\n      tag_220\n      jumpi\n      mload(0x40)\n      shl(0xe5, 0x461bcd)\n      dup2\n      mstore\n        /* \"#utility.yul\":2006:2008   */\n      0x20\n        /* \"Lottery.sol\":1064:1176  require(... */\n      0x04\n      dup3\n      add\n        /* \"#utility.yul\":1988:2009   */\n      mstore\n        /* \"#utility.yul\":2045:2047   */\n      0x22\n        /* \"#utility.yul\":2025:2043   */\n      0x24\n      dup3\n      add\n        /* \"#utility.yul\":2018:2048   */\n      mstore\n        /* \"#utility.yul\":2084:2118   */\n      0x43616c6c6572206973206e6f7420746865206c6f7474657279206f7065726174\n        /* \"#utility.yul\":2064:2082   */\n      0x44\n      dup3\n      add\n        /* \"#utility.yul\":2057:2119   */\n      mstore\n      shl(0xf1, 0x37b9)\n        /* \"#utility.yul\":2135:2153   */\n      0x64\n      dup3\n      add\n        /* \"#utility.yul\":2128:2160   */\n      mstore\n        /* \"#utility.yul\":2177:2196   */\n      0x84\n      add\n        /* \"Lottery.sol\":1064:1176  require(... */\n      tag_130\n        /* \"#utility.yul\":1804:2202   */\n      jump\n        /* \"Lottery.sol\":1064:1176  require(... */\n    tag_220:\n        /* \"Lottery.sol\":3035:3042  tickets */\n      0x06\n        /* \"Lottery.sol\":3035:3049  tickets.length */\n      sload\n        /* \"Lottery.sol\":3035:3054  tickets.length == 0 */\n      iszero\n        /* \"Lottery.sol\":3027:3097  require(tickets.length == 0, \"Cannot Restart Draw as Draw is in play\") */\n      tag_223\n      jumpi\n      mload(0x40)\n      shl(0xe5, 0x461bcd)\n      dup2\n      mstore\n        /* \"#utility.yul\":6770:6772   */\n      0x20\n        /* \"Lottery.sol\":3027:3097  require(tickets.length == 0, \"Cannot Restart Draw as Draw is in play\") */\n      0x04\n      dup3\n      add\n        /* \"#utility.yul\":6752:6773   */\n      mstore\n        /* \"#utility.yul\":6809:6811   */\n      0x26\n        /* \"#utility.yul\":6789:6807   */\n      0x24\n      dup3\n      add\n        /* \"#utility.yul\":6782:6812   */\n      mstore\n        /* \"#utility.yul\":6848:6882   */\n      0x43616e6e6f742052657374617274204472617720617320447261772069732069\n        /* \"#utility.yul\":6828:6846   */\n      0x44\n      dup3\n      add\n        /* \"#utility.yul\":6821:6883   */\n      mstore\n        /* \"#utility.yul\":6919:6927   */\n      0x6e20706c61790000000000000000000000000000000000000000000000000000\n        /* \"#utility.yul\":6899:6917   */\n      0x64\n      dup3\n      add\n        /* \"#utility.yul\":6892:6928   */\n      mstore\n        /* \"#utility.yul\":6945:6964   */\n      0x84\n      add\n        /* \"Lottery.sol\":3027:3097  require(tickets.length == 0, \"Cannot Restart Draw as Draw is in play\") */\n      tag_130\n        /* \"#utility.yul\":6568:6970   */\n      jump\n        /* \"Lottery.sol\":3027:3097  require(tickets.length == 0, \"Cannot Restart Draw as Draw is in play\") */\n    tag_223:\n        /* \"Lottery.sol\":3108:3122  delete tickets */\n      tag_226\n        /* \"Lottery.sol\":3115:3122  tickets */\n      0x06\n      0x00\n        /* \"Lottery.sol\":3108:3122  delete tickets */\n      tag_160\n      jump\t// in\n    tag_226:\n        /* \"Lottery.sol\":3145:3171  block.timestamp + duration */\n      tag_227\n        /* \"Lottery.sol\":396:406  30 minutes */\n      0x0708\n        /* \"Lottery.sol\":3145:3160  block.timestamp */\n      timestamp\n        /* \"Lottery.sol\":3145:3171  block.timestamp + duration */\n      tag_156\n      jump\t// in\n    tag_227:\n        /* \"Lottery.sol\":3132:3142  expiration */\n      0x00\n        /* \"Lottery.sol\":3132:3171  expiration = block.timestamp + duration */\n      sstore\n        /* \"Lottery.sol\":2976:3178  function restartDraw() public isOperator {... */\n      jump\t// out\n        /* \"@openzeppelin/contracts/utils/Strings.sol\":392:1095   */\n    tag_171:\n        /* \"@openzeppelin/contracts/utils/Strings.sol\":448:461   */\n      0x60\n        /* \"@openzeppelin/contracts/utils/Strings.sol\":665:670   */\n      dup2\n        /* \"@openzeppelin/contracts/utils/Strings.sol\":674:675   */\n      0x00\n        /* \"@openzeppelin/contracts/utils/Strings.sol\":665:675   */\n      sub\n        /* \"@openzeppelin/contracts/utils/Strings.sol\":661:712   */\n      tag_229\n      jumpi\n      pop\n      pop\n        /* \"@openzeppelin/contracts/utils/Strings.sol\":691:701   */\n      0x40\n      dup1\n      mload\n      dup1\n      dup3\n      add\n      swap1\n      swap2\n      mstore\n      0x01\n      dup2\n      mstore\n      shl(0xfc, 0x03)\n      0x20\n      dup3\n      add\n      mstore\n      swap1\n        /* \"@openzeppelin/contracts/utils/Strings.sol\":392:1095   */\n      jump\t// out\n        /* \"@openzeppelin/contracts/utils/Strings.sol\":661:712   */\n    tag_229:\n        /* \"@openzeppelin/contracts/utils/Strings.sol\":736:741   */\n      dup2\n        /* \"@openzeppelin/contracts/utils/Strings.sol\":721:733   */\n      0x00\n        /* \"@openzeppelin/contracts/utils/Strings.sol\":775:850   */\n    tag_230:\n        /* \"@openzeppelin/contracts/utils/Strings.sol\":782:791   */\n      dup2\n      iszero\n        /* \"@openzeppelin/contracts/utils/Strings.sol\":775:850   */\n      tag_231\n      jumpi\n        /* \"@openzeppelin/contracts/utils/Strings.sol\":807:815   */\n      dup1\n      tag_232\n      dup2\n      tag_187\n      jump\t// in\n    tag_232:\n      swap2\n      pop\n        /* \"@openzeppelin/contracts/utils/Strings.sol\":829:839   */\n      tag_233\n      swap1\n      pop\n        /* \"@openzeppelin/contracts/utils/Strings.sol\":837:839   */\n      0x0a\n        /* \"@openzeppelin/contracts/utils/Strings.sol\":829:839   */\n      dup4\n      tag_234\n      jump\t// in\n    tag_233:\n      swap2\n      pop\n        /* \"@openzeppelin/contracts/utils/Strings.sol\":775:850   */\n      jump(tag_230)\n    tag_231:\n        /* \"@openzeppelin/contracts/utils/Strings.sol\":859:878   */\n      0x00\n        /* \"@openzeppelin/contracts/utils/Strings.sol\":891:897   */\n      dup2\n        /* \"@openzeppelin/contracts/utils/Strings.sol\":881:898   */\n      0xffffffffffffffff\n      dup2\n      gt\n      iszero\n      tag_236\n      jumpi\n      tag_236\n      tag_237\n      jump\t// in\n    tag_236:\n      mload(0x40)\n      swap1\n      dup1\n      dup3\n      mstore\n      dup1\n      0x1f\n      add\n      not(0x1f)\n      and\n      0x20\n      add\n      dup3\n      add\n      0x40\n      mstore\n      dup1\n      iszero\n      tag_238\n      jumpi\n      0x20\n      dup3\n      add\n      dup2\n      dup1\n      calldatasize\n      dup4\n      calldatacopy\n      add\n      swap1\n      pop\n    tag_238:\n      pop\n        /* \"@openzeppelin/contracts/utils/Strings.sol\":859:898   */\n      swap1\n      pop\n        /* \"@openzeppelin/contracts/utils/Strings.sol\":908:1058   */\n    tag_239:\n        /* \"@openzeppelin/contracts/utils/Strings.sol\":915:925   */\n      dup5\n      iszero\n        /* \"@openzeppelin/contracts/utils/Strings.sol\":908:1058   */\n      tag_240\n      jumpi\n        /* \"@openzeppelin/contracts/utils/Strings.sol\":941:952   */\n      tag_241\n        /* \"@openzeppelin/contracts/utils/Strings.sol\":951:952   */\n      0x01\n        /* \"@openzeppelin/contracts/utils/Strings.sol\":941:952   */\n      dup4\n      tag_143\n      jump\t// in\n    tag_241:\n      swap2\n      pop\n        /* \"@openzeppelin/contracts/utils/Strings.sol\":1009:1019   */\n      tag_242\n        /* \"@openzeppelin/contracts/utils/Strings.sol\":1017:1019   */\n      0x0a\n        /* \"@openzeppelin/contracts/utils/Strings.sol\":1009:1014   */\n      dup7\n        /* \"@openzeppelin/contracts/utils/Strings.sol\":1009:1019   */\n      tag_147\n      jump\t// in\n    tag_242:\n        /* \"@openzeppelin/contracts/utils/Strings.sol\":996:1020   */\n      tag_243\n      swap1\n        /* \"@openzeppelin/contracts/utils/Strings.sol\":996:998   */\n      0x30\n        /* \"@openzeppelin/contracts/utils/Strings.sol\":996:1020   */\n      tag_156\n      jump\t// in\n    tag_243:\n        /* \"@openzeppelin/contracts/utils/Strings.sol\":983:1022   */\n      0xf8\n      shl\n        /* \"@openzeppelin/contracts/utils/Strings.sol\":966:972   */\n      dup2\n        /* \"@openzeppelin/contracts/utils/Strings.sol\":973:979   */\n      dup4\n        /* \"@openzeppelin/contracts/utils/Strings.sol\":966:980   */\n      dup2\n      mload\n      dup2\n      lt\n      tag_245\n      jumpi\n      tag_245\n      tag_150\n      jump\t// in\n    tag_245:\n      0x20\n      add\n      add\n        /* \"@openzeppelin/contracts/utils/Strings.sol\":966:1022   */\n      swap1\n      not(0xffffffffffffffffffffffffffffffffffffffffffffffffffffffffffffff)\n      and\n      swap1\n      dup2\n      0x00\n      byte\n      swap1\n      mstore8\n      pop\n        /* \"@openzeppelin/contracts/utils/Strings.sol\":1036:1047   */\n      tag_246\n        /* \"@openzeppelin/contracts/utils/Strings.sol\":1045:1047   */\n      0x0a\n        /* \"@openzeppelin/contracts/utils/Strings.sol\":1036:1047   */\n      dup7\n      tag_234\n      jump\t// in\n    tag_246:\n      swap5\n      pop\n        /* \"@openzeppelin/contracts/utils/Strings.sol\":908:1058   */\n      jump(tag_239)\n    tag_240:\n        /* \"@openzeppelin/contracts/utils/Strings.sol\":1081:1087   */\n      swap5\n        /* \"@openzeppelin/contracts/utils/Strings.sol\":392:1095   */\n      swap4\n      pop\n      pop\n      pop\n      pop\n      jump\t// out\n    tag_160:\n      pop\n      dup1\n      sload\n      0x00\n      dup3\n      sstore\n      swap1\n      0x00\n      mstore\n      keccak256(0x00, 0x20)\n      swap1\n      dup2\n      add\n      swap1\n      tag_248\n      swap2\n      swap1\n      tag_249\n      jump\t// in\n    tag_248:\n      pop\n      jump\t// out\n    tag_249:\n    tag_250:\n      dup1\n      dup3\n      gt\n      iszero\n      tag_251\n      jumpi\n      0x00\n      dup2\n      sstore\n      0x01\n      add\n      jump(tag_250)\n    tag_251:\n      pop\n      swap1\n      jump\t// out\n        /* \"#utility.yul\":196:877   */\n    tag_63:\n        /* \"#utility.yul\":367:369   */\n      0x20\n        /* \"#utility.yul\":419:440   */\n      dup1\n      dup3\n      mstore\n        /* \"#utility.yul\":489:502   */\n      dup3\n      mload\n        /* \"#utility.yul\":392:410   */\n      dup3\n      dup3\n      add\n        /* \"#utility.yul\":511:533   */\n      dup2\n      swap1\n      mstore\n        /* \"#utility.yul\":338:342   */\n      0x00\n      swap2\n        /* \"#utility.yul\":367:369   */\n      swap1\n        /* \"#utility.yul\":590:605   */\n      dup5\n      dup3\n      add\n      swap1\n        /* \"#utility.yul\":564:566   */\n      0x40\n        /* \"#utility.yul\":549:567   */\n      dup6\n      add\n      swap1\n        /* \"#utility.yul\":338:342   */\n      dup5\n        /* \"#utility.yul\":633:851   */\n    tag_258:\n        /* \"#utility.yul\":647:653   */\n      dup2\n        /* \"#utility.yul\":644:645   */\n      dup2\n        /* \"#utility.yul\":641:654   */\n      lt\n        /* \"#utility.yul\":633:851   */\n      iszero\n      tag_260\n      jumpi\n        /* \"#utility.yul\":712:725   */\n      dup4\n      mload\n      sub(shl(0xa0, 0x01), 0x01)\n        /* \"#utility.yul\":708:770   */\n      and\n        /* \"#utility.yul\":696:771   */\n      dup4\n      mstore\n        /* \"#utility.yul\":826:841   */\n      swap3\n      dup5\n      add\n      swap3\n        /* \"#utility.yul\":791:803   */\n      swap2\n      dup5\n      add\n      swap2\n        /* \"#utility.yul\":669:670   */\n      0x01\n        /* \"#utility.yul\":662:671   */\n      add\n        /* \"#utility.yul\":633:851   */\n      jump(tag_258)\n    tag_260:\n      pop\n        /* \"#utility.yul\":868:871   */\n      swap1\n      swap7\n        /* \"#utility.yul\":196:877   */\n      swap6\n      pop\n      pop\n      pop\n      pop\n      pop\n      pop\n      jump\t// out\n        /* \"#utility.yul\":882:1062   */\n    tag_67:\n        /* \"#utility.yul\":941:947   */\n      0x00\n        /* \"#utility.yul\":994:996   */\n      0x20\n        /* \"#utility.yul\":982:991   */\n      dup3\n        /* \"#utility.yul\":973:980   */\n      dup5\n        /* \"#utility.yul\":969:992   */\n      sub\n        /* \"#utility.yul\":965:997   */\n      slt\n        /* \"#utility.yul\":962:1014   */\n      iszero\n      tag_262\n      jumpi\n        /* \"#utility.yul\":1010:1011   */\n      0x00\n        /* \"#utility.yul\":1007:1008   */\n      dup1\n        /* \"#utility.yul\":1000:1012   */\n      revert\n        /* \"#utility.yul\":962:1014   */\n    tag_262:\n      pop\n        /* \"#utility.yul\":1033:1056   */\n      calldataload\n      swap2\n        /* \"#utility.yul\":882:1062   */\n      swap1\n      pop\n      jump\t// out\n        /* \"#utility.yul\":1490:1799   */\n    tag_112:\n        /* \"#utility.yul\":1549:1555   */\n      0x00\n        /* \"#utility.yul\":1602:1604   */\n      0x20\n        /* \"#utility.yul\":1590:1599   */\n      dup3\n        /* \"#utility.yul\":1581:1588   */\n      dup5\n        /* \"#utility.yul\":1577:1600   */\n      sub\n        /* \"#utility.yul\":1573:1605   */\n      slt\n        /* \"#utility.yul\":1570:1622   */\n      iszero\n      tag_266\n      jumpi\n        /* \"#utility.yul\":1618:1619   */\n      0x00\n        /* \"#utility.yul\":1615:1616   */\n      dup1\n        /* \"#utility.yul\":1608:1620   */\n      revert\n        /* \"#utility.yul\":1570:1622   */\n    tag_266:\n        /* \"#utility.yul\":1657:1666   */\n      dup2\n        /* \"#utility.yul\":1644:1667   */\n      calldataload\n      sub(shl(0xa0, 0x01), 0x01)\n        /* \"#utility.yul\":1700:1705   */\n      dup2\n        /* \"#utility.yul\":1696:1750   */\n      and\n        /* \"#utility.yul\":1689:1694   */\n      dup2\n        /* \"#utility.yul\":1686:1751   */\n      eq\n        /* \"#utility.yul\":1676:1769   */\n      tag_267\n      jumpi\n        /* \"#utility.yul\":1765:1766   */\n      0x00\n        /* \"#utility.yul\":1762:1763   */\n      dup1\n        /* \"#utility.yul\":1755:1767   */\n      revert\n        /* \"#utility.yul\":1676:1769   */\n    tag_267:\n        /* \"#utility.yul\":1788:1793   */\n      swap4\n        /* \"#utility.yul\":1490:1799   */\n      swap3\n      pop\n      pop\n      pop\n      jump\t// out\n        /* \"#utility.yul\":2561:2688   */\n    tag_252:\n        /* \"#utility.yul\":2622:2632   */\n      0x4e487b71\n        /* \"#utility.yul\":2617:2620   */\n      0xe0\n        /* \"#utility.yul\":2613:2633   */\n      shl\n        /* \"#utility.yul\":2610:2611   */\n      0x00\n        /* \"#utility.yul\":2603:2634   */\n      mstore\n        /* \"#utility.yul\":2653:2657   */\n      0x11\n        /* \"#utility.yul\":2650:2651   */\n      0x04\n        /* \"#utility.yul\":2643:2658   */\n      mstore\n        /* \"#utility.yul\":2677:2681   */\n      0x24\n        /* \"#utility.yul\":2674:2675   */\n      0x00\n        /* \"#utility.yul\":2667:2682   */\n      revert\n        /* \"#utility.yul\":2693:2821   */\n    tag_143:\n        /* \"#utility.yul\":2760:2769   */\n      dup2\n      dup2\n      sub\n        /* \"#utility.yul\":2781:2792   */\n      dup2\n      dup2\n      gt\n        /* \"#utility.yul\":2778:2815   */\n      iszero\n      tag_273\n      jumpi\n        /* \"#utility.yul\":2795:2813   */\n      tag_273\n      tag_252\n      jump\t// in\n    tag_273:\n        /* \"#utility.yul\":2693:2821   */\n      swap3\n      swap2\n      pop\n      pop\n      jump\t// out\n        /* \"#utility.yul\":3078:3205   */\n    tag_253:\n        /* \"#utility.yul\":3139:3149   */\n      0x4e487b71\n        /* \"#utility.yul\":3134:3137   */\n      0xe0\n        /* \"#utility.yul\":3130:3150   */\n      shl\n        /* \"#utility.yul\":3127:3128   */\n      0x00\n        /* \"#utility.yul\":3120:3151   */\n      mstore\n        /* \"#utility.yul\":3170:3174   */\n      0x12\n        /* \"#utility.yul\":3167:3168   */\n      0x04\n        /* \"#utility.yul\":3160:3175   */\n      mstore\n        /* \"#utility.yul\":3194:3198   */\n      0x24\n        /* \"#utility.yul\":3191:3192   */\n      0x00\n        /* \"#utility.yul\":3184:3199   */\n      revert\n        /* \"#utility.yul\":3210:3322   */\n    tag_147:\n        /* \"#utility.yul\":3242:3243   */\n      0x00\n        /* \"#utility.yul\":3268:3269   */\n      dup3\n        /* \"#utility.yul\":3258:3293   */\n      tag_278\n      jumpi\n        /* \"#utility.yul\":3273:3291   */\n      tag_278\n      tag_253\n      jump\t// in\n    tag_278:\n      pop\n        /* \"#utility.yul\":3307:3316   */\n      mod\n      swap1\n        /* \"#utility.yul\":3210:3322   */\n      jump\t// out\n        /* \"#utility.yul\":3327:3454   */\n    tag_150:\n        /* \"#utility.yul\":3388:3398   */\n      0x4e487b71\n        /* \"#utility.yul\":3383:3386   */\n      0xe0\n        /* \"#utility.yul\":3379:3399   */\n      shl\n        /* \"#utility.yul\":3376:3377   */\n      0x00\n        /* \"#utility.yul\":3369:3400   */\n      mstore\n        /* \"#utility.yul\":3419:3423   */\n      0x32\n        /* \"#utility.yul\":3416:3417   */\n      0x04\n        /* \"#utility.yul\":3409:3424   */\n      mstore\n        /* \"#utility.yul\":3443:3447   */\n      0x24\n        /* \"#utility.yul\":3440:3441   */\n      0x00\n        /* \"#utility.yul\":3433:3448   */\n      revert\n        /* \"#utility.yul\":3459:3627   */\n    tag_154:\n        /* \"#utility.yul\":3532:3541   */\n      dup1\n      dup3\n      mul\n        /* \"#utility.yul\":3563:3572   */\n      dup2\n      iszero\n        /* \"#utility.yul\":3580:3595   */\n      dup3\n      dup3\n      div\n        /* \"#utility.yul\":3574:3596   */\n      dup5\n      eq\n        /* \"#utility.yul\":3560:3597   */\n      or\n        /* \"#utility.yul\":3550:3621   */\n      tag_273\n      jumpi\n        /* \"#utility.yul\":3601:3619   */\n      tag_273\n      tag_252\n      jump\t// in\n        /* \"#utility.yul\":3632:3757   */\n    tag_156:\n        /* \"#utility.yul\":3697:3706   */\n      dup1\n      dup3\n      add\n        /* \"#utility.yul\":3718:3728   */\n      dup1\n      dup3\n      gt\n        /* \"#utility.yul\":3715:3751   */\n      iszero\n      tag_273\n      jumpi\n        /* \"#utility.yul\":3731:3749   */\n      tag_273\n      tag_252\n      jump\t// in\n        /* \"#utility.yul\":3762:4012   */\n    tag_254:\n        /* \"#utility.yul\":3847:3848   */\n      0x00\n        /* \"#utility.yul\":3857:3970   */\n    tag_287:\n        /* \"#utility.yul\":3871:3877   */\n      dup4\n        /* \"#utility.yul\":3868:3869   */\n      dup2\n        /* \"#utility.yul\":3865:3878   */\n      lt\n        /* \"#utility.yul\":3857:3970   */\n      iszero\n      tag_289\n      jumpi\n        /* \"#utility.yul\":3947:3958   */\n      dup2\n      dup2\n      add\n        /* \"#utility.yul\":3941:3959   */\n      mload\n        /* \"#utility.yul\":3928:3939   */\n      dup4\n      dup3\n      add\n        /* \"#utility.yul\":3921:3960   */\n      mstore\n        /* \"#utility.yul\":3893:3895   */\n      0x20\n        /* \"#utility.yul\":3886:3896   */\n      add\n        /* \"#utility.yul\":3857:3970   */\n      jump(tag_287)\n    tag_289:\n      pop\n      pop\n        /* \"#utility.yul\":4004:4005   */\n      0x00\n        /* \"#utility.yul\":3986:4002   */\n      swap2\n      add\n        /* \"#utility.yul\":3979:4006   */\n      mstore\n        /* \"#utility.yul\":3762:4012   */\n      jump\t// out\n        /* \"#utility.yul\":4017:4957   */\n    tag_174:\n        /* \"#utility.yul\":4498:4518   */\n      0x7468652076616c7565206d757374206265200000000000000000000000000000\n        /* \"#utility.yul\":4493:4496   */\n      dup2\n        /* \"#utility.yul\":4486:4519   */\n      mstore\n        /* \"#utility.yul\":4468:4471   */\n      0x00\n        /* \"#utility.yul\":4548:4554   */\n      dup4\n        /* \"#utility.yul\":4542:4555   */\n      mload\n        /* \"#utility.yul\":4564:4639   */\n      tag_291\n        /* \"#utility.yul\":4632:4638   */\n      dup2\n        /* \"#utility.yul\":4627:4629   */\n      0x12\n        /* \"#utility.yul\":4622:4625   */\n      dup6\n        /* \"#utility.yul\":4618:4630   */\n      add\n        /* \"#utility.yul\":4611:4615   */\n      0x20\n        /* \"#utility.yul\":4603:4609   */\n      dup9\n        /* \"#utility.yul\":4599:4616   */\n      add\n        /* \"#utility.yul\":4564:4639   */\n      tag_254\n      jump\t// in\n    tag_291:\n        /* \"#utility.yul\":4703:4723   */\n      0x20457468657220666f7220627579696e67200000000000000000000000000000\n        /* \"#utility.yul\":4698:4700   */\n      0x12\n        /* \"#utility.yul\":4658:4674   */\n      swap2\n      dup5\n      add\n        /* \"#utility.yul\":4690:4701   */\n      swap2\n      dup3\n      add\n        /* \"#utility.yul\":4683:4724   */\n      mstore\n        /* \"#utility.yul\":4749:4762   */\n      dup4\n      mload\n        /* \"#utility.yul\":4771:4847   */\n      tag_292\n        /* \"#utility.yul\":4749:4762   */\n      dup2\n        /* \"#utility.yul\":4833:4835   */\n      0x24\n        /* \"#utility.yul\":4825:4836   */\n      dup5\n      add\n        /* \"#utility.yul\":4818:4822   */\n      0x20\n        /* \"#utility.yul\":4806:4823   */\n      dup9\n      add\n        /* \"#utility.yul\":4771:4847   */\n      tag_254\n      jump\t// in\n    tag_292:\n        /* \"#utility.yul\":4912:4923   */\n      0x207469636b6574732e0000000000000000000000000000000000000000000000\n        /* \"#utility.yul\":4907:4909   */\n      0x24\n        /* \"#utility.yul\":4866:4883   */\n      swap3\n      swap1\n      swap2\n      add\n        /* \"#utility.yul\":4899:4910   */\n      swap2\n      dup3\n      add\n        /* \"#utility.yul\":4892:4924   */\n      mstore\n        /* \"#utility.yul\":4948:4950   */\n      0x2d\n        /* \"#utility.yul\":4940:4951   */\n      add\n      swap5\n        /* \"#utility.yul\":4017:4957   */\n      swap4\n      pop\n      pop\n      pop\n      pop\n      jump\t// out\n        /* \"#utility.yul\":4962:5358   */\n    tag_177:\n        /* \"#utility.yul\":5111:5113   */\n      0x20\n        /* \"#utility.yul\":5100:5109   */\n      dup2\n        /* \"#utility.yul\":5093:5114   */\n      mstore\n        /* \"#utility.yul\":5074:5078   */\n      0x00\n        /* \"#utility.yul\":5143:5149   */\n      dup3\n        /* \"#utility.yul\":5137:5150   */\n      mload\n        /* \"#utility.yul\":5186:5192   */\n      dup1\n        /* \"#utility.yul\":5181:5183   */\n      0x20\n        /* \"#utility.yul\":5170:5179   */\n      dup5\n        /* \"#utility.yul\":5166:5184   */\n      add\n        /* \"#utility.yul\":5159:5193   */\n      mstore\n        /* \"#utility.yul\":5202:5281   */\n      tag_294\n        /* \"#utility.yul\":5274:5280   */\n      dup2\n        /* \"#utility.yul\":5269:5271   */\n      0x40\n        /* \"#utility.yul\":5258:5267   */\n      dup6\n        /* \"#utility.yul\":5254:5272   */\n      add\n        /* \"#utility.yul\":5249:5251   */\n      0x20\n        /* \"#utility.yul\":5241:5247   */\n      dup8\n        /* \"#utility.yul\":5237:5252   */\n      add\n        /* \"#utility.yul\":5202:5281   */\n      tag_254\n      jump\t// in\n    tag_294:\n        /* \"#utility.yul\":5342:5344   */\n      0x1f\n        /* \"#utility.yul\":5321:5336   */\n      add\n      not(0x1f)\n        /* \"#utility.yul\":5317:5346   */\n      and\n        /* \"#utility.yul\":5302:5347   */\n      swap2\n      swap1\n      swap2\n      add\n        /* \"#utility.yul\":5349:5351   */\n      0x40\n        /* \"#utility.yul\":5298:5352   */\n      add\n      swap3\n        /* \"#utility.yul\":4962:5358   */\n      swap2\n      pop\n      pop\n      jump\t// out\n        /* \"#utility.yul\":5721:5856   */\n    tag_187:\n        /* \"#utility.yul\":5760:5763   */\n      0x00\n        /* \"#utility.yul\":5781:5798   */\n      0x01\n      dup3\n      add\n        /* \"#utility.yul\":5778:5821   */\n      tag_298\n      jumpi\n        /* \"#utility.yul\":5801:5819   */\n      tag_298\n      tag_252\n      jump\t// in\n    tag_298:\n      pop\n        /* \"#utility.yul\":5848:5849   */\n      0x01\n        /* \"#utility.yul\":5837:5850   */\n      add\n      swap1\n        /* \"#utility.yul\":5721:5856   */\n      jump\t// out\n        /* \"#utility.yul\":6975:7095   */\n    tag_234:\n        /* \"#utility.yul\":7015:7016   */\n      0x00\n        /* \"#utility.yul\":7041:7042   */\n      dup3\n        /* \"#utility.yul\":7031:7066   */\n      tag_304\n      jumpi\n        /* \"#utility.yul\":7046:7064   */\n      tag_304\n      tag_253\n      jump\t// in\n    tag_304:\n      pop\n        /* \"#utility.yul\":7080:7089   */\n      div\n      swap1\n        /* \"#utility.yul\":6975:7095   */\n      jump\t// out\n        /* \"#utility.yul\":7100:7227   */\n    tag_237:\n        /* \"#utility.yul\":7161:7171   */\n      0x4e487b71\n        /* \"#utility.yul\":7156:7159   */\n      0xe0\n        /* \"#utility.yul\":7152:7172   */\n      shl\n        /* \"#utility.yul\":7149:7150   */\n      0x00\n        /* \"#utility.yul\":7142:7173   */\n      mstore\n        /* \"#utility.yul\":7192:7196   */\n      0x41\n        /* \"#utility.yul\":7189:7190   */\n      0x04\n        /* \"#utility.yul\":7182:7197   */\n      mstore\n        /* \"#utility.yul\":7216:7220   */\n      0x24\n        /* \"#utility.yul\":7213:7214   */\n      0x00\n        /* \"#utility.yul\":7206:7221   */\n      revert\n\n    auxdata: 0xa26469706673582212207ee6fb0985235b914ad1bc02946e41d807c64996c09bd2b2913b2e969a02212264736f6c63430008110033\n}\n",
    "bytecode": {
      "linkReferences": {},
      "object": "6080604052600060025534801561001557600080fd5b50600180546001600160a01b031916331790556100346107084261003c565b600055610063565b8082018082111561005d57634e487b7160e01b600052601160045260246000fd5b92915050565b610fa3806100726000396000f3fe6080604052600436106101805760003560e01c80636032a4f9116100d6578063ba946d791161007f578063ea3a149911610059578063ea3a1499146103d0578063f2613269146103fd578063fe1881841461041257600080fd5b8063ba946d791461036f578063c6944fa014610385578063dd64e5341461039a57600080fd5b806396c85ef3116100b057806396c85ef3146103155780639b89470314610344578063a88f46721461035a57600080fd5b80636032a4f9146102d057806371827b7b146102eb57806393a563b51461030057600080fd5b80634665096d1161013857806350b447121161011257806350b447121461026557806359ab03061461029d5780635a58acdd146102b057600080fd5b80634665096d146102185780634788af7c1461022e5780634ed026221461024357600080fd5b80630fb5a6b4116101695780630fb5a6b4146101d05780631209b1f6146101e657806335580df21461020157600080fd5b806306f7f3bf146101855780630789c607146101ae575b600080fd5b34801561019157600080fd5b5061019b60045481565b6040519081526020015b60405180910390f35b3480156101ba57600080fd5b503360009081526005602052604090205461019b565b3480156101dc57600080fd5b5061019b61070881565b3480156101f257600080fd5b5061019b662386f26fc1000081565b34801561020d57600080fd5b50610216610432565b005b34801561022457600080fd5b5061019b60005481565b34801561023a57600080fd5b506102166104d9565b34801561024f57600080fd5b506102586106ed565b6040516101a59190610cf9565b34801561027157600080fd5b50610285610280366004610d46565b61074f565b6040516001600160a01b0390911681526020016101a5565b6102166102ab366004610d46565b610779565b3480156102bc57600080fd5b50600154610285906001600160a01b031681565b3480156102dc57600080fd5b5061019b66038d7ea4c6800081565b3480156102f757600080fd5b506102166108b4565b34801561030c57600080fd5b5061019b610953565b34801561032157600080fd5b5033600090815260056020526040902054151560405190151581526020016101a5565b34801561035057600080fd5b5061019b6103e881565b34801561036657600080fd5b5061021661096a565b34801561037b57600080fd5b5061019b60025481565b34801561039157600080fd5b5061019b610a8e565b3480156103a657600080fd5b5061019b6103b5366004610d5f565b6001600160a01b031660009081526005602052604090205490565b3480156103dc57600080fd5b5061019b6103eb366004610d5f565b60056020526000908152604090205481565b34801561040957600080fd5b50610216610aa6565b34801561041e57600080fd5b50600354610285906001600160a01b031681565b6001546001600160a01b0316331461049c5760405162461bcd60e51b815260206004820152602260248201527f43616c6c6572206973206e6f7420746865206c6f7474657279206f706572617460448201526137b960f11b60648201526084015b60405180910390fd5b600280546000918290556040513392839183156108fc0291849190818181858888f193505050501580156104d4573d6000803e3d6000fd5b505050565b6001546001600160a01b0316331461053e5760405162461bcd60e51b815260206004820152602260248201527f43616c6c6572206973206e6f7420746865206c6f7474657279206f706572617460448201526137b960f11b6064820152608401610493565b60065461058d5760405162461bcd60e51b815260206004820152601960248201527f4e6f207469636b657473207765726520707572636861736564000000000000006044820152606401610493565b60065460009061059d9043610da5565b604080514260208201529140908201819052915060009060600160408051601f1981840301815291905280516020909101206006549091506000906105e29083610dd4565b90506000600682815481106105f9576105f9610de8565b6000918252602090912001546003805473ffffffffffffffffffffffffffffffffffffffff19166001600160a01b039092169182179055905061064a66038d7ea4c68000662386f26fc10000610da5565b6006546106579190610dfe565b6001600160a01b0382166000908152600560205260408120805490919061067f908490610e15565b90915550506001600160a01b0381166000908152600560205260409020546004556006546106b59066038d7ea4c6800090610dfe565b600260008282546106c69190610e15565b909155506106d8905060066000610cbf565b6106e461070842610e15565b60005550505050565b6060600680548060200260200160405190810160405280929190818152602001828054801561074557602002820191906000526020600020905b81546001600160a01b03168152600190910190602001808311610727575b5050505050905090565b6006818154811061075f57600080fd5b6000918252602090912001546001600160a01b0316905081565b61078a662386f26fc1000082610dfe565b34146107a56107a0662386f26fc1000084610dfe565b610b9e565b6107ae83610b9e565b6040516020016107bf929190610e4c565b604051602081830303815290604052906107ec5760405162461bcd60e51b81526004016104939190610ef7565b506107f5610953565b8111156108445760405162461bcd60e51b815260206004820152601d60248201527f4e6f7420656e6f756768207469636b65747320617661696c61626c652e0000006044820152606401610493565b60005b818110156108b057600680546001810182556000919091527ff652222313e28459528d920b65115c16c04f3efc82aaedc97be59f3f377c0d3f01805473ffffffffffffffffffffffffffffffffffffffff191633179055806108a881610f2a565b915050610847565b5050565b336000908152600560205260409020546109105760405162461bcd60e51b815260206004820152601660248201527f43616c6c6572206973206e6f7420612077696e6e6572000000000000000000006044820152606401610493565b3360008181526005602052604080822080549083905590519091839183156108fc0291849190818181858888f193505050501580156104d4573d6000803e3d6000fd5b600654600090610965906103e8610da5565b905090565b6000544210156109bc5760405162461bcd60e51b815260206004820152601b60248201527f746865206c6f7474657279206e6f7420657870697265642079657400000000006044820152606401610493565b60005b600654811015610a7f576000600682815481106109de576109de610de8565b6000918252602082200154600680546001600160a01b0390921693509084908110610a0b57610a0b610de8565b60009182526020822001805473ffffffffffffffffffffffffffffffffffffffff19166001600160a01b0393841617905560405191831691662386f26fc100009082818181858883f19350505050158015610a6a573d6000803e3d6000fd5b50508080610a7790610f2a565b9150506109bf565b50610a8c60066000610cbf565b565b60065460009061096590662386f26fc1000090610dfe565b6001546001600160a01b03163314610b0b5760405162461bcd60e51b815260206004820152602260248201527f43616c6c6572206973206e6f7420746865206c6f7474657279206f706572617460448201526137b960f11b6064820152608401610493565b60065415610b815760405162461bcd60e51b815260206004820152602660248201527f43616e6e6f74205265737461727420447261772061732044726177206973206960448201527f6e20706c617900000000000000000000000000000000000000000000000000006064820152608401610493565b610b8d60066000610cbf565b610b9961070842610e15565b600055565b606081600003610bc55750506040805180820190915260018152600360fc1b602082015290565b8160005b8115610bef5780610bd981610f2a565b9150610be89050600a83610f43565b9150610bc9565b60008167ffffffffffffffff811115610c0a57610c0a610f57565b6040519080825280601f01601f191660200182016040528015610c34576020820181803683370190505b5090505b8415610cb757610c49600183610da5565b9150610c56600a86610dd4565b610c61906030610e15565b60f81b818381518110610c7657610c76610de8565b60200101907effffffffffffffffffffffffffffffffffffffffffffffffffffffffffffff1916908160001a905350610cb0600a86610f43565b9450610c38565b949350505050565b5080546000825590600052602060002090810190610cdd9190610ce0565b50565b5b80821115610cf55760008155600101610ce1565b5090565b6020808252825182820181905260009190848201906040850190845b81811015610d3a5783516001600160a01b031683529284019291840191600101610d15565b50909695505050505050565b600060208284031215610d5857600080fd5b5035919050565b600060208284031215610d7157600080fd5b81356001600160a01b0381168114610d8857600080fd5b9392505050565b634e487b7160e01b600052601160045260246000fd5b81810381811115610db857610db8610d8f565b92915050565b634e487b7160e01b600052601260045260246000fd5b600082610de357610de3610dbe565b500690565b634e487b7160e01b600052603260045260246000fd5b8082028115828204841417610db857610db8610d8f565b80820180821115610db857610db8610d8f565b60005b83811015610e43578181015183820152602001610e2b565b50506000910152565b7f7468652076616c7565206d757374206265200000000000000000000000000000815260008351610e84816012850160208801610e28565b7f20457468657220666f7220627579696e672000000000000000000000000000006012918401918201528351610ec1816024840160208801610e28565b7f207469636b6574732e000000000000000000000000000000000000000000000060249290910191820152602d01949350505050565b6020815260008251806020840152610f16816040850160208701610e28565b601f01601f19169190910160400192915050565b600060018201610f3c57610f3c610d8f565b5060010190565b600082610f5257610f52610dbe565b500490565b634e487b7160e01b600052604160045260246000fdfea26469706673582212207ee6fb0985235b914ad1bc02946e41d807c64996c09bd2b2913b2e969a02212264736f6c63430008110033",
      "opcodes": "PUSH1 0x80 PUSH1 0x40 MSTORE PUSH1 0x0 PUSH1 0x2 SSTORE CALLVALUE DUP1 ISZERO PUSH2 0x15 JUMPI PUSH1 0x0 DUP1 REVERT JUMPDEST POP PUSH1 0x1 DUP1 SLOAD PUSH1 0x1 PUSH1 0x1 PUSH1 0xA0 SHL SUB NOT AND CALLER OR SWAP1 SSTORE PUSH2 0x34 PUSH2 0x708 TIMESTAMP PUSH2 0x3C JUMP JUMPDEST PUSH1 0x0 SSTORE PUSH2 0x63 JUMP JUMPDEST DUP1 DUP3 ADD DUP1 DUP3 GT ISZERO PUSH2 0x5D JUMPI PUSH4 0x4E487B71 PUSH1 0xE0 SHL PUSH1 0x0 MSTORE PUSH1 0x11 PUSH1 0x4 MSTORE PUSH1 0x24 PUSH1 0x0 REVERT JUMPDEST SWAP3 SWAP2 POP POP JUMP JUMPDEST PUSH2 0xFA3 DUP1 PUSH2 0x72 PUSH1 0x0 CODECOPY PUSH1 0x0 RETURN INVALID PUSH1 0x80 PUSH1 0x40 MSTORE PUSH1 0x4 CALLDATASIZE LT PUSH2 0x180 JUMPI PUSH1 0x0 CALLDATALOAD PUSH1 0xE0 SHR DUP1 PUSH4 0x6032A4F9 GT PUSH2 0xD6 JUMPI DUP1 PUSH4 0xBA946D79 GT PUSH2 0x7F JUMPI DUP1 PUSH4 0xEA3A1499 GT PUSH2 0x59 JUMPI DUP1 PUSH4 0xEA3A1499 EQ PUSH2 0x3D0 JUMPI DUP1 PUSH4 0xF2613269 EQ PUSH2 0x3FD JUMPI DUP1 PUSH4 0xFE188184 EQ PUSH2 0x412 JUMPI PUSH1 0x0 DUP1 REVERT JUMPDEST DUP1 PUSH4 0xBA946D79 EQ PUSH2 0x36F JUMPI DUP1 PUSH4 0xC6944FA0 EQ PUSH2 0x385 JUMPI DUP1 PUSH4 0xDD64E534 EQ PUSH2 0x39A JUMPI PUSH1 0x0 DUP1 REVERT JUMPDEST DUP1 PUSH4 0x96C85EF3 GT PUSH2 0xB0 JUMPI DUP1 PUSH4 0x96C85EF3 EQ PUSH2 0x315 JUMPI DUP1 PUSH4 0x9B894703 EQ PUSH2 0x344 JUMPI DUP1 PUSH4 0xA88F4672 EQ PUSH2 0x35A JUMPI PUSH1 0x0 DUP1 REVERT JUMPDEST DUP1 PUSH4 0x6032A4F9 EQ PUSH2 0x2D0 JUMPI DUP1 PUSH4 0x71827B7B EQ PUSH2 0x2EB JUMPI DUP1 PUSH4 0x93A563B5 EQ PUSH2 0x300 JUMPI PUSH1 0x0 DUP1 REVERT JUMPDEST DUP1 PUSH4 0x4665096D GT PUSH2 0x138 JUMPI DUP1 PUSH4 0x50B44712 GT PUSH2 0x112 JUMPI DUP1 PUSH4 0x50B44712 EQ PUSH2 0x265 JUMPI DUP1 PUSH4 0x59AB0306 EQ PUSH2 0x29D JUMPI DUP1 PUSH4 0x5A58ACDD EQ PUSH2 0x2B0 JUMPI PUSH1 0x0 DUP1 REVERT JUMPDEST DUP1 PUSH4 0x4665096D EQ PUSH2 0x218 JUMPI DUP1 PUSH4 0x4788AF7C EQ PUSH2 0x22E JUMPI DUP1 PUSH4 0x4ED02622 EQ PUSH2 0x243 JUMPI PUSH1 0x0 DUP1 REVERT JUMPDEST DUP1 PUSH4 0xFB5A6B4 GT PUSH2 0x169 JUMPI DUP1 PUSH4 0xFB5A6B4 EQ PUSH2 0x1D0 JUMPI DUP1 PUSH4 0x1209B1F6 EQ PUSH2 0x1E6 JUMPI DUP1 PUSH4 0x35580DF2 EQ PUSH2 0x201 JUMPI PUSH1 0x0 DUP1 REVERT JUMPDEST DUP1 PUSH4 0x6F7F3BF EQ PUSH2 0x185 JUMPI DUP1 PUSH4 0x789C607 EQ PUSH2 0x1AE JUMPI JUMPDEST PUSH1 0x0 DUP1 REVERT JUMPDEST CALLVALUE DUP1 ISZERO PUSH2 0x191 JUMPI PUSH1 0x0 DUP1 REVERT JUMPDEST POP PUSH2 0x19B PUSH1 0x4 SLOAD DUP2 JUMP JUMPDEST PUSH1 0x40 MLOAD SWAP1 DUP2 MSTORE PUSH1 0x20 ADD JUMPDEST PUSH1 0x40 MLOAD DUP1 SWAP2 SUB SWAP1 RETURN JUMPDEST CALLVALUE DUP1 ISZERO PUSH2 0x1BA JUMPI PUSH1 0x0 DUP1 REVERT JUMPDEST POP CALLER PUSH1 0x0 SWAP1 DUP2 MSTORE PUSH1 0x5 PUSH1 0x20 MSTORE PUSH1 0x40 SWAP1 KECCAK256 SLOAD PUSH2 0x19B JUMP JUMPDEST CALLVALUE DUP1 ISZERO PUSH2 0x1DC JUMPI PUSH1 0x0 DUP1 REVERT JUMPDEST POP PUSH2 0x19B PUSH2 0x708 DUP2 JUMP JUMPDEST CALLVALUE DUP1 ISZERO PUSH2 0x1F2 JUMPI PUSH1 0x0 DUP1 REVERT JUMPDEST POP PUSH2 0x19B PUSH7 0x2386F26FC10000 DUP2 JUMP JUMPDEST CALLVALUE DUP1 ISZERO PUSH2 0x20D JUMPI PUSH1 0x0 DUP1 REVERT JUMPDEST POP PUSH2 0x216 PUSH2 0x432 JUMP JUMPDEST STOP JUMPDEST CALLVALUE DUP1 ISZERO PUSH2 0x224 JUMPI PUSH1 0x0 DUP1 REVERT JUMPDEST POP PUSH2 0x19B PUSH1 0x0 SLOAD DUP2 JUMP JUMPDEST CALLVALUE DUP1 ISZERO PUSH2 0x23A JUMPI PUSH1 0x0 DUP1 REVERT JUMPDEST POP PUSH2 0x216 PUSH2 0x4D9 JUMP JUMPDEST CALLVALUE DUP1 ISZERO PUSH2 0x24F JUMPI PUSH1 0x0 DUP1 REVERT JUMPDEST POP PUSH2 0x258 PUSH2 0x6ED JUMP JUMPDEST PUSH1 0x40 MLOAD PUSH2 0x1A5 SWAP2 SWAP1 PUSH2 0xCF9 JUMP JUMPDEST CALLVALUE DUP1 ISZERO PUSH2 0x271 JUMPI PUSH1 0x0 DUP1 REVERT JUMPDEST POP PUSH2 0x285 PUSH2 0x280 CALLDATASIZE PUSH1 0x4 PUSH2 0xD46 JUMP JUMPDEST PUSH2 0x74F JUMP JUMPDEST PUSH1 0x40 MLOAD PUSH1 0x1 PUSH1 0x1 PUSH1 0xA0 SHL SUB SWAP1 SWAP2 AND DUP2 MSTORE PUSH1 0x20 ADD PUSH2 0x1A5 JUMP JUMPDEST PUSH2 0x216 PUSH2 0x2AB CALLDATASIZE PUSH1 0x4 PUSH2 0xD46 JUMP JUMPDEST PUSH2 0x779 JUMP JUMPDEST CALLVALUE DUP1 ISZERO PUSH2 0x2BC JUMPI PUSH1 0x0 DUP1 REVERT JUMPDEST POP PUSH1 0x1 SLOAD PUSH2 0x285 SWAP1 PUSH1 0x1 PUSH1 0x1 PUSH1 0xA0 SHL SUB AND DUP2 JUMP JUMPDEST CALLVALUE DUP1 ISZERO PUSH2 0x2DC JUMPI PUSH1 0x0 DUP1 REVERT JUMPDEST POP PUSH2 0x19B PUSH7 0x38D7EA4C68000 DUP2 JUMP JUMPDEST CALLVALUE DUP1 ISZERO PUSH2 0x2F7 JUMPI PUSH1 0x0 DUP1 REVERT JUMPDEST POP PUSH2 0x216 PUSH2 0x8B4 JUMP JUMPDEST CALLVALUE DUP1 ISZERO PUSH2 0x30C JUMPI PUSH1 0x0 DUP1 REVERT JUMPDEST POP PUSH2 0x19B PUSH2 0x953 JUMP JUMPDEST CALLVALUE DUP1 ISZERO PUSH2 0x321 JUMPI PUSH1 0x0 DUP1 REVERT JUMPDEST POP CALLER PUSH1 0x0 SWAP1 DUP2 MSTORE PUSH1 0x5 PUSH1 0x20 MSTORE PUSH1 0x40 SWAP1 KECCAK256 SLOAD ISZERO ISZERO PUSH1 0x40 MLOAD SWAP1 ISZERO ISZERO DUP2 MSTORE PUSH1 0x20 ADD PUSH2 0x1A5 JUMP JUMPDEST CALLVALUE DUP1 ISZERO PUSH2 0x350 JUMPI PUSH1 0x0 DUP1 REVERT JUMPDEST POP PUSH2 0x19B PUSH2 0x3E8 DUP2 JUMP JUMPDEST CALLVALUE DUP1 ISZERO PUSH2 0x366 JUMPI PUSH1 0x0 DUP1 REVERT JUMPDEST POP PUSH2 0x216 PUSH2 0x96A JUMP JUMPDEST CALLVALUE DUP1 ISZERO PUSH2 0x37B JUMPI PUSH1 0x0 DUP1 REVERT JUMPDEST POP PUSH2 0x19B PUSH1 0x2 SLOAD DUP2 JUMP JUMPDEST CALLVALUE DUP1 ISZERO PUSH2 0x391 JUMPI PUSH1 0x0 DUP1 REVERT JUMPDEST POP PUSH2 0x19B PUSH2 0xA8E JUMP JUMPDEST CALLVALUE DUP1 ISZERO PUSH2 0x3A6 JUMPI PUSH1 0x0 DUP1 REVERT JUMPDEST POP PUSH2 0x19B PUSH2 0x3B5 CALLDATASIZE PUSH1 0x4 PUSH2 0xD5F JUMP JUMPDEST PUSH1 0x1 PUSH1 0x1 PUSH1 0xA0 SHL SUB AND PUSH1 0x0 SWAP1 DUP2 MSTORE PUSH1 0x5 PUSH1 0x20 MSTORE PUSH1 0x40 SWAP1 KECCAK256 SLOAD SWAP1 JUMP JUMPDEST CALLVALUE DUP1 ISZERO PUSH2 0x3DC JUMPI PUSH1 0x0 DUP1 REVERT JUMPDEST POP PUSH2 0x19B PUSH2 0x3EB CALLDATASIZE PUSH1 0x4 PUSH2 0xD5F JUMP JUMPDEST PUSH1 0x5 PUSH1 0x20 MSTORE PUSH1 0x0 SWAP1 DUP2 MSTORE PUSH1 0x40 SWAP1 KECCAK256 SLOAD DUP2 JUMP JUMPDEST CALLVALUE DUP1 ISZERO PUSH2 0x409 JUMPI PUSH1 0x0 DUP1 REVERT JUMPDEST POP PUSH2 0x216 PUSH2 0xAA6 JUMP JUMPDEST CALLVALUE DUP1 ISZERO PUSH2 0x41E JUMPI PUSH1 0x0 DUP1 REVERT JUMPDEST POP PUSH1 0x3 SLOAD PUSH2 0x285 SWAP1 PUSH1 0x1 PUSH1 0x1 PUSH1 0xA0 SHL SUB AND DUP2 JUMP JUMPDEST PUSH1 0x1 SLOAD PUSH1 0x1 PUSH1 0x1 PUSH1 0xA0 SHL SUB AND CALLER EQ PUSH2 0x49C JUMPI PUSH1 0x40 MLOAD PUSH3 0x461BCD PUSH1 0xE5 SHL DUP2 MSTORE PUSH1 0x20 PUSH1 0x4 DUP3 ADD MSTORE PUSH1 0x22 PUSH1 0x24 DUP3 ADD MSTORE PUSH32 0x43616C6C6572206973206E6F7420746865206C6F7474657279206F7065726174 PUSH1 0x44 DUP3 ADD MSTORE PUSH2 0x37B9 PUSH1 0xF1 SHL PUSH1 0x64 DUP3 ADD MSTORE PUSH1 0x84 ADD JUMPDEST PUSH1 0x40 MLOAD DUP1 SWAP2 SUB SWAP1 REVERT JUMPDEST PUSH1 0x2 DUP1 SLOAD PUSH1 0x0 SWAP2 DUP3 SWAP1 SSTORE PUSH1 0x40 MLOAD CALLER SWAP3 DUP4 SWAP2 DUP4 ISZERO PUSH2 0x8FC MUL SWAP2 DUP5 SWAP2 SWAP1 DUP2 DUP2 DUP2 DUP6 DUP9 DUP9 CALL SWAP4 POP POP POP POP ISZERO DUP1 ISZERO PUSH2 0x4D4 JUMPI RETURNDATASIZE PUSH1 0x0 DUP1 RETURNDATACOPY RETURNDATASIZE PUSH1 0x0 REVERT JUMPDEST POP POP POP JUMP JUMPDEST PUSH1 0x1 SLOAD PUSH1 0x1 PUSH1 0x1 PUSH1 0xA0 SHL SUB AND CALLER EQ PUSH2 0x53E JUMPI PUSH1 0x40 MLOAD PUSH3 0x461BCD PUSH1 0xE5 SHL DUP2 MSTORE PUSH1 0x20 PUSH1 0x4 DUP3 ADD MSTORE PUSH1 0x22 PUSH1 0x24 DUP3 ADD MSTORE PUSH32 0x43616C6C6572206973206E6F7420746865206C6F7474657279206F7065726174 PUSH1 0x44 DUP3 ADD MSTORE PUSH2 0x37B9 PUSH1 0xF1 SHL PUSH1 0x64 DUP3 ADD MSTORE PUSH1 0x84 ADD PUSH2 0x493 JUMP JUMPDEST PUSH1 0x6 SLOAD PUSH2 0x58D JUMPI PUSH1 0x40 MLOAD PUSH3 0x461BCD PUSH1 0xE5 SHL DUP2 MSTORE PUSH1 0x20 PUSH1 0x4 DUP3 ADD MSTORE PUSH1 0x19 PUSH1 0x24 DUP3 ADD MSTORE PUSH32 0x4E6F207469636B65747320776572652070757263686173656400000000000000 PUSH1 0x44 DUP3 ADD MSTORE PUSH1 0x64 ADD PUSH2 0x493 JUMP JUMPDEST PUSH1 0x6 SLOAD PUSH1 0x0 SWAP1 PUSH2 0x59D SWAP1 NUMBER PUSH2 0xDA5 JUMP JUMPDEST PUSH1 0x40 DUP1 MLOAD TIMESTAMP PUSH1 0x20 DUP3 ADD MSTORE SWAP2 BLOCKHASH SWAP1 DUP3 ADD DUP2 SWAP1 MSTORE SWAP2 POP PUSH1 0x0 SWAP1 PUSH1 0x60 ADD PUSH1 0x40 DUP1 MLOAD PUSH1 0x1F NOT DUP2 DUP5 SUB ADD DUP2 MSTORE SWAP2 SWAP1 MSTORE DUP1 MLOAD PUSH1 0x20 SWAP1 SWAP2 ADD KECCAK256 PUSH1 0x6 SLOAD SWAP1 SWAP2 POP PUSH1 0x0 SWAP1 PUSH2 0x5E2 SWAP1 DUP4 PUSH2 0xDD4 JUMP JUMPDEST SWAP1 POP PUSH1 0x0 PUSH1 0x6 DUP3 DUP2 SLOAD DUP2 LT PUSH2 0x5F9 JUMPI PUSH2 0x5F9 PUSH2 0xDE8 JUMP JUMPDEST PUSH1 0x0 SWAP2 DUP3 MSTORE PUSH1 0x20 SWAP1 SWAP2 KECCAK256 ADD SLOAD PUSH1 0x3 DUP1 SLOAD PUSH20 0xFFFFFFFFFFFFFFFFFFFFFFFFFFFFFFFFFFFFFFFF NOT AND PUSH1 0x1 PUSH1 0x1 PUSH1 0xA0 SHL SUB SWAP1 SWAP3 AND SWAP2 DUP3 OR SWAP1 SSTORE SWAP1 POP PUSH2 0x64A PUSH7 0x38D7EA4C68000 PUSH7 0x2386F26FC10000 PUSH2 0xDA5 JUMP JUMPDEST PUSH1 0x6 SLOAD PUSH2 0x657 SWAP2 SWAP1 PUSH2 0xDFE JUMP JUMPDEST PUSH1 0x1 PUSH1 0x1 PUSH1 0xA0 SHL SUB DUP3 AND PUSH1 0x0 SWAP1 DUP2 MSTORE PUSH1 0x5 PUSH1 0x20 MSTORE PUSH1 0x40 DUP2 KECCAK256 DUP1 SLOAD SWAP1 SWAP2 SWAP1 PUSH2 0x67F SWAP1 DUP5 SWAP1 PUSH2 0xE15 JUMP JUMPDEST SWAP1 SWAP2 SSTORE POP POP PUSH1 0x1 PUSH1 0x1 PUSH1 0xA0 SHL SUB DUP2 AND PUSH1 0x0 SWAP1 DUP2 MSTORE PUSH1 0x5 PUSH1 0x20 MSTORE PUSH1 0x40 SWAP1 KECCAK256 SLOAD PUSH1 0x4 SSTORE PUSH1 0x6 SLOAD PUSH2 0x6B5 SWAP1 PUSH7 0x38D7EA4C68000 SWAP1 PUSH2 0xDFE JUMP JUMPDEST PUSH1 0x2 PUSH1 0x0 DUP3 DUP3 SLOAD PUSH2 0x6C6 SWAP2 SWAP1 PUSH2 0xE15 JUMP JUMPDEST SWAP1 SWAP2 SSTORE POP PUSH2 0x6D8 SWAP1 POP PUSH1 0x6 PUSH1 0x0 PUSH2 0xCBF JUMP JUMPDEST PUSH2 0x6E4 PUSH2 0x708 TIMESTAMP PUSH2 0xE15 JUMP JUMPDEST PUSH1 0x0 SSTORE POP POP POP POP JUMP JUMPDEST PUSH1 0x60 PUSH1 0x6 DUP1 SLOAD DUP1 PUSH1 0x20 MUL PUSH1 0x20 ADD PUSH1 0x40 MLOAD SWAP1 DUP2 ADD PUSH1 0x40 MSTORE DUP1 SWAP3 SWAP2 SWAP1 DUP2 DUP2 MSTORE PUSH1 0x20 ADD DUP3 DUP1 SLOAD DUP1 ISZERO PUSH2 0x745 JUMPI PUSH1 0x20 MUL DUP3 ADD SWAP2 SWAP1 PUSH1 0x0 MSTORE PUSH1 0x20 PUSH1 0x0 KECCAK256 SWAP1 JUMPDEST DUP2 SLOAD PUSH1 0x1 PUSH1 0x1 PUSH1 0xA0 SHL SUB AND DUP2 MSTORE PUSH1 0x1 SWAP1 SWAP2 ADD SWAP1 PUSH1 0x20 ADD DUP1 DUP4 GT PUSH2 0x727 JUMPI JUMPDEST POP POP POP POP POP SWAP1 POP SWAP1 JUMP JUMPDEST PUSH1 0x6 DUP2 DUP2 SLOAD DUP2 LT PUSH2 0x75F JUMPI PUSH1 0x0 DUP1 REVERT JUMPDEST PUSH1 0x0 SWAP2 DUP3 MSTORE PUSH1 0x20 SWAP1 SWAP2 KECCAK256 ADD SLOAD PUSH1 0x1 PUSH1 0x1 PUSH1 0xA0 SHL SUB AND SWAP1 POP DUP2 JUMP JUMPDEST PUSH2 0x78A PUSH7 0x2386F26FC10000 DUP3 PUSH2 0xDFE JUMP JUMPDEST CALLVALUE EQ PUSH2 0x7A5 PUSH2 0x7A0 PUSH7 0x2386F26FC10000 DUP5 PUSH2 0xDFE JUMP JUMPDEST PUSH2 0xB9E JUMP JUMPDEST PUSH2 0x7AE DUP4 PUSH2 0xB9E JUMP JUMPDEST PUSH1 0x40 MLOAD PUSH1 0x20 ADD PUSH2 0x7BF SWAP3 SWAP2 SWAP1 PUSH2 0xE4C JUMP JUMPDEST PUSH1 0x40 MLOAD PUSH1 0x20 DUP2 DUP4 SUB SUB DUP2 MSTORE SWAP1 PUSH1 0x40 MSTORE SWAP1 PUSH2 0x7EC JUMPI PUSH1 0x40 MLOAD PUSH3 0x461BCD PUSH1 0xE5 SHL DUP2 MSTORE PUSH1 0x4 ADD PUSH2 0x493 SWAP2 SWAP1 PUSH2 0xEF7 JUMP JUMPDEST POP PUSH2 0x7F5 PUSH2 0x953 JUMP JUMPDEST DUP2 GT ISZERO PUSH2 0x844 JUMPI PUSH1 0x40 MLOAD PUSH3 0x461BCD PUSH1 0xE5 SHL DUP2 MSTORE PUSH1 0x20 PUSH1 0x4 DUP3 ADD MSTORE PUSH1 0x1D PUSH1 0x24 DUP3 ADD MSTORE PUSH32 0x4E6F7420656E6F756768207469636B65747320617661696C61626C652E000000 PUSH1 0x44 DUP3 ADD MSTORE PUSH1 0x64 ADD PUSH2 0x493 JUMP JUMPDEST PUSH1 0x0 JUMPDEST DUP2 DUP2 LT ISZERO PUSH2 0x8B0 JUMPI PUSH1 0x6 DUP1 SLOAD PUSH1 0x1 DUP2 ADD DUP3 SSTORE PUSH1 0x0 SWAP2 SWAP1 SWAP2 MSTORE PUSH32 0xF652222313E28459528D920B65115C16C04F3EFC82AAEDC97BE59F3F377C0D3F ADD DUP1 SLOAD PUSH20 0xFFFFFFFFFFFFFFFFFFFFFFFFFFFFFFFFFFFFFFFF NOT AND CALLER OR SWAP1 SSTORE DUP1 PUSH2 0x8A8 DUP2 PUSH2 0xF2A JUMP JUMPDEST SWAP2 POP POP PUSH2 0x847 JUMP JUMPDEST POP POP JUMP JUMPDEST CALLER PUSH1 0x0 SWAP1 DUP2 MSTORE PUSH1 0x5 PUSH1 0x20 MSTORE PUSH1 0x40 SWAP1 KECCAK256 SLOAD PUSH2 0x910 JUMPI PUSH1 0x40 MLOAD PUSH3 0x461BCD PUSH1 0xE5 SHL DUP2 MSTORE PUSH1 0x20 PUSH1 0x4 DUP3 ADD MSTORE PUSH1 0x16 PUSH1 0x24 DUP3 ADD MSTORE PUSH32 0x43616C6C6572206973206E6F7420612077696E6E657200000000000000000000 PUSH1 0x44 DUP3 ADD MSTORE PUSH1 0x64 ADD PUSH2 0x493 JUMP JUMPDEST CALLER PUSH1 0x0 DUP2 DUP2 MSTORE PUSH1 0x5 PUSH1 0x20 MSTORE PUSH1 0x40 DUP1 DUP3 KECCAK256 DUP1 SLOAD SWAP1 DUP4 SWAP1 SSTORE SWAP1 MLOAD SWAP1 SWAP2 DUP4 SWAP2 DUP4 ISZERO PUSH2 0x8FC MUL SWAP2 DUP5 SWAP2 SWAP1 DUP2 DUP2 DUP2 DUP6 DUP9 DUP9 CALL SWAP4 POP POP POP POP ISZERO DUP1 ISZERO PUSH2 0x4D4 JUMPI RETURNDATASIZE PUSH1 0x0 DUP1 RETURNDATACOPY RETURNDATASIZE PUSH1 0x0 REVERT JUMPDEST PUSH1 0x6 SLOAD PUSH1 0x0 SWAP1 PUSH2 0x965 SWAP1 PUSH2 0x3E8 PUSH2 0xDA5 JUMP JUMPDEST SWAP1 POP SWAP1 JUMP JUMPDEST PUSH1 0x0 SLOAD TIMESTAMP LT ISZERO PUSH2 0x9BC JUMPI PUSH1 0x40 MLOAD PUSH3 0x461BCD PUSH1 0xE5 SHL DUP2 MSTORE PUSH1 0x20 PUSH1 0x4 DUP3 ADD MSTORE PUSH1 0x1B PUSH1 0x24 DUP3 ADD MSTORE PUSH32 0x746865206C6F7474657279206E6F742065787069726564207965740000000000 PUSH1 0x44 DUP3 ADD MSTORE PUSH1 0x64 ADD PUSH2 0x493 JUMP JUMPDEST PUSH1 0x0 JUMPDEST PUSH1 0x6 SLOAD DUP2 LT ISZERO PUSH2 0xA7F JUMPI PUSH1 0x0 PUSH1 0x6 DUP3 DUP2 SLOAD DUP2 LT PUSH2 0x9DE JUMPI PUSH2 0x9DE PUSH2 0xDE8 JUMP JUMPDEST PUSH1 0x0 SWAP2 DUP3 MSTORE PUSH1 0x20 DUP3 KECCAK256 ADD SLOAD PUSH1 0x6 DUP1 SLOAD PUSH1 0x1 PUSH1 0x1 PUSH1 0xA0 SHL SUB SWAP1 SWAP3 AND SWAP4 POP SWAP1 DUP5 SWAP1 DUP2 LT PUSH2 0xA0B JUMPI PUSH2 0xA0B PUSH2 0xDE8 JUMP JUMPDEST PUSH1 0x0 SWAP2 DUP3 MSTORE PUSH1 0x20 DUP3 KECCAK256 ADD DUP1 SLOAD PUSH20 0xFFFFFFFFFFFFFFFFFFFFFFFFFFFFFFFFFFFFFFFF NOT AND PUSH1 0x1 PUSH1 0x1 PUSH1 0xA0 SHL SUB SWAP4 DUP5 AND OR SWAP1 SSTORE PUSH1 0x40 MLOAD SWAP2 DUP4 AND SWAP2 PUSH7 0x2386F26FC10000 SWAP1 DUP3 DUP2 DUP2 DUP2 DUP6 DUP9 DUP4 CALL SWAP4 POP POP POP POP ISZERO DUP1 ISZERO PUSH2 0xA6A JUMPI RETURNDATASIZE PUSH1 0x0 DUP1 RETURNDATACOPY RETURNDATASIZE PUSH1 0x0 REVERT JUMPDEST POP POP DUP1 DUP1 PUSH2 0xA77 SWAP1 PUSH2 0xF2A JUMP JUMPDEST SWAP2 POP POP PUSH2 0x9BF JUMP JUMPDEST POP PUSH2 0xA8C PUSH1 0x6 PUSH1 0x0 PUSH2 0xCBF JUMP JUMPDEST JUMP JUMPDEST PUSH1 0x6 SLOAD PUSH1 0x0 SWAP1 PUSH2 0x965 SWAP1 PUSH7 0x2386F26FC10000 SWAP1 PUSH2 0xDFE JUMP JUMPDEST PUSH1 0x1 SLOAD PUSH1 0x1 PUSH1 0x1 PUSH1 0xA0 SHL SUB AND CALLER EQ PUSH2 0xB0B JUMPI PUSH1 0x40 MLOAD PUSH3 0x461BCD PUSH1 0xE5 SHL DUP2 MSTORE PUSH1 0x20 PUSH1 0x4 DUP3 ADD MSTORE PUSH1 0x22 PUSH1 0x24 DUP3 ADD MSTORE PUSH32 0x43616C6C6572206973206E6F7420746865206C6F7474657279206F7065726174 PUSH1 0x44 DUP3 ADD MSTORE PUSH2 0x37B9 PUSH1 0xF1 SHL PUSH1 0x64 DUP3 ADD MSTORE PUSH1 0x84 ADD PUSH2 0x493 JUMP JUMPDEST PUSH1 0x6 SLOAD ISZERO PUSH2 0xB81 JUMPI PUSH1 0x40 MLOAD PUSH3 0x461BCD PUSH1 0xE5 SHL DUP2 MSTORE PUSH1 0x20 PUSH1 0x4 DUP3 ADD MSTORE PUSH1 0x26 PUSH1 0x24 DUP3 ADD MSTORE PUSH32 0x43616E6E6F742052657374617274204472617720617320447261772069732069 PUSH1 0x44 DUP3 ADD MSTORE PUSH32 0x6E20706C61790000000000000000000000000000000000000000000000000000 PUSH1 0x64 DUP3 ADD MSTORE PUSH1 0x84 ADD PUSH2 0x493 JUMP JUMPDEST PUSH2 0xB8D PUSH1 0x6 PUSH1 0x0 PUSH2 0xCBF JUMP JUMPDEST PUSH2 0xB99 PUSH2 0x708 TIMESTAMP PUSH2 0xE15 JUMP JUMPDEST PUSH1 0x0 SSTORE JUMP JUMPDEST PUSH1 0x60 DUP2 PUSH1 0x0 SUB PUSH2 0xBC5 JUMPI POP POP PUSH1 0x40 DUP1 MLOAD DUP1 DUP3 ADD SWAP1 SWAP2 MSTORE PUSH1 0x1 DUP2 MSTORE PUSH1 0x3 PUSH1 0xFC SHL PUSH1 0x20 DUP3 ADD MSTORE SWAP1 JUMP JUMPDEST DUP2 PUSH1 0x0 JUMPDEST DUP2 ISZERO PUSH2 0xBEF JUMPI DUP1 PUSH2 0xBD9 DUP2 PUSH2 0xF2A JUMP JUMPDEST SWAP2 POP PUSH2 0xBE8 SWAP1 POP PUSH1 0xA DUP4 PUSH2 0xF43 JUMP JUMPDEST SWAP2 POP PUSH2 0xBC9 JUMP JUMPDEST PUSH1 0x0 DUP2 PUSH8 0xFFFFFFFFFFFFFFFF DUP2 GT ISZERO PUSH2 0xC0A JUMPI PUSH2 0xC0A PUSH2 0xF57 JUMP JUMPDEST PUSH1 0x40 MLOAD SWAP1 DUP1 DUP3 MSTORE DUP1 PUSH1 0x1F ADD PUSH1 0x1F NOT AND PUSH1 0x20 ADD DUP3 ADD PUSH1 0x40 MSTORE DUP1 ISZERO PUSH2 0xC34 JUMPI PUSH1 0x20 DUP3 ADD DUP2 DUP1 CALLDATASIZE DUP4 CALLDATACOPY ADD SWAP1 POP JUMPDEST POP SWAP1 POP JUMPDEST DUP5 ISZERO PUSH2 0xCB7 JUMPI PUSH2 0xC49 PUSH1 0x1 DUP4 PUSH2 0xDA5 JUMP JUMPDEST SWAP2 POP PUSH2 0xC56 PUSH1 0xA DUP7 PUSH2 0xDD4 JUMP JUMPDEST PUSH2 0xC61 SWAP1 PUSH1 0x30 PUSH2 0xE15 JUMP JUMPDEST PUSH1 0xF8 SHL DUP2 DUP4 DUP2 MLOAD DUP2 LT PUSH2 0xC76 JUMPI PUSH2 0xC76 PUSH2 0xDE8 JUMP JUMPDEST PUSH1 0x20 ADD ADD SWAP1 PUSH31 0xFFFFFFFFFFFFFFFFFFFFFFFFFFFFFFFFFFFFFFFFFFFFFFFFFFFFFFFFFFFFFF NOT AND SWAP1 DUP2 PUSH1 0x0 BYTE SWAP1 MSTORE8 POP PUSH2 0xCB0 PUSH1 0xA DUP7 PUSH2 0xF43 JUMP JUMPDEST SWAP5 POP PUSH2 0xC38 JUMP JUMPDEST SWAP5 SWAP4 POP POP POP POP JUMP JUMPDEST POP DUP1 SLOAD PUSH1 0x0 DUP3 SSTORE SWAP1 PUSH1 0x0 MSTORE PUSH1 0x20 PUSH1 0x0 KECCAK256 SWAP1 DUP2 ADD SWAP1 PUSH2 0xCDD SWAP2 SWAP1 PUSH2 0xCE0 JUMP JUMPDEST POP JUMP JUMPDEST JUMPDEST DUP1 DUP3 GT ISZERO PUSH2 0xCF5 JUMPI PUSH1 0x0 DUP2 SSTORE PUSH1 0x1 ADD PUSH2 0xCE1 JUMP JUMPDEST POP SWAP1 JUMP JUMPDEST PUSH1 0x20 DUP1 DUP3 MSTORE DUP3 MLOAD DUP3 DUP3 ADD DUP2 SWAP1 MSTORE PUSH1 0x0 SWAP2 SWAP1 DUP5 DUP3 ADD SWAP1 PUSH1 0x40 DUP6 ADD SWAP1 DUP5 JUMPDEST DUP2 DUP2 LT ISZERO PUSH2 0xD3A JUMPI DUP4 MLOAD PUSH1 0x1 PUSH1 0x1 PUSH1 0xA0 SHL SUB AND DUP4 MSTORE SWAP3 DUP5 ADD SWAP3 SWAP2 DUP5 ADD SWAP2 PUSH1 0x1 ADD PUSH2 0xD15 JUMP JUMPDEST POP SWAP1 SWAP7 SWAP6 POP POP POP POP POP POP JUMP JUMPDEST PUSH1 0x0 PUSH1 0x20 DUP3 DUP5 SUB SLT ISZERO PUSH2 0xD58 JUMPI PUSH1 0x0 DUP1 REVERT JUMPDEST POP CALLDATALOAD SWAP2 SWAP1 POP JUMP JUMPDEST PUSH1 0x0 PUSH1 0x20 DUP3 DUP5 SUB SLT ISZERO PUSH2 0xD71 JUMPI PUSH1 0x0 DUP1 REVERT JUMPDEST DUP2 CALLDATALOAD PUSH1 0x1 PUSH1 0x1 PUSH1 0xA0 SHL SUB DUP2 AND DUP2 EQ PUSH2 0xD88 JUMPI PUSH1 0x0 DUP1 REVERT JUMPDEST SWAP4 SWAP3 POP POP POP JUMP JUMPDEST PUSH4 0x4E487B71 PUSH1 0xE0 SHL PUSH1 0x0 MSTORE PUSH1 0x11 PUSH1 0x4 MSTORE PUSH1 0x24 PUSH1 0x0 REVERT JUMPDEST DUP2 DUP2 SUB DUP2 DUP2 GT ISZERO PUSH2 0xDB8 JUMPI PUSH2 0xDB8 PUSH2 0xD8F JUMP JUMPDEST SWAP3 SWAP2 POP POP JUMP JUMPDEST PUSH4 0x4E487B71 PUSH1 0xE0 SHL PUSH1 0x0 MSTORE PUSH1 0x12 PUSH1 0x4 MSTORE PUSH1 0x24 PUSH1 0x0 REVERT JUMPDEST PUSH1 0x0 DUP3 PUSH2 0xDE3 JUMPI PUSH2 0xDE3 PUSH2 0xDBE JUMP JUMPDEST POP MOD SWAP1 JUMP JUMPDEST PUSH4 0x4E487B71 PUSH1 0xE0 SHL PUSH1 0x0 MSTORE PUSH1 0x32 PUSH1 0x4 MSTORE PUSH1 0x24 PUSH1 0x0 REVERT JUMPDEST DUP1 DUP3 MUL DUP2 ISZERO DUP3 DUP3 DIV DUP5 EQ OR PUSH2 0xDB8 JUMPI PUSH2 0xDB8 PUSH2 0xD8F JUMP JUMPDEST DUP1 DUP3 ADD DUP1 DUP3 GT ISZERO PUSH2 0xDB8 JUMPI PUSH2 0xDB8 PUSH2 0xD8F JUMP JUMPDEST PUSH1 0x0 JUMPDEST DUP4 DUP2 LT ISZERO PUSH2 0xE43 JUMPI DUP2 DUP2 ADD MLOAD DUP4 DUP3 ADD MSTORE PUSH1 0x20 ADD PUSH2 0xE2B JUMP JUMPDEST POP POP PUSH1 0x0 SWAP2 ADD MSTORE JUMP JUMPDEST PUSH32 0x7468652076616C7565206D757374206265200000000000000000000000000000 DUP2 MSTORE PUSH1 0x0 DUP4 MLOAD PUSH2 0xE84 DUP2 PUSH1 0x12 DUP6 ADD PUSH1 0x20 DUP9 ADD PUSH2 0xE28 JUMP JUMPDEST PUSH32 0x20457468657220666F7220627579696E67200000000000000000000000000000 PUSH1 0x12 SWAP2 DUP5 ADD SWAP2 DUP3 ADD MSTORE DUP4 MLOAD PUSH2 0xEC1 DUP2 PUSH1 0x24 DUP5 ADD PUSH1 0x20 DUP9 ADD PUSH2 0xE28 JUMP JUMPDEST PUSH32 0x207469636B6574732E0000000000000000000000000000000000000000000000 PUSH1 0x24 SWAP3 SWAP1 SWAP2 ADD SWAP2 DUP3 ADD MSTORE PUSH1 0x2D ADD SWAP5 SWAP4 POP POP POP POP JUMP JUMPDEST PUSH1 0x20 DUP2 MSTORE PUSH1 0x0 DUP3 MLOAD DUP1 PUSH1 0x20 DUP5 ADD MSTORE PUSH2 0xF16 DUP2 PUSH1 0x40 DUP6 ADD PUSH1 0x20 DUP8 ADD PUSH2 0xE28 JUMP JUMPDEST PUSH1 0x1F ADD PUSH1 0x1F NOT AND SWAP2 SWAP1 SWAP2 ADD PUSH1 0x40 ADD SWAP3 SWAP2 POP POP JUMP JUMPDEST PUSH1 0x0 PUSH1 0x1 DUP3 ADD PUSH2 0xF3C JUMPI PUSH2 0xF3C PUSH2 0xD8F JUMP JUMPDEST POP PUSH1 0x1 ADD SWAP1 JUMP JUMPDEST PUSH1 0x0 DUP3 PUSH2 0xF52 JUMPI PUSH2 0xF52 PUSH2 0xDBE JUMP JUMPDEST POP DIV SWAP1 JUMP JUMPDEST PUSH4 0x4E487B71 PUSH1 0xE0 SHL PUSH1 0x0 MSTORE PUSH1 0x41 PUSH1 0x4 MSTORE PUSH1 0x24 PUSH1 0x0 REVERT INVALID LOG2 PUSH5 0x6970667358 0x22 SLT KECCAK256 PUSH31 0xE6FB0985235B914AD1BC02946E41D807C64996C09BD2B2913B2E969A022122 PUSH5 0x736F6C6343 STOP ADDMOD GT STOP CALLER "
    },
    "gasEstimates": {
      "creation": {
        "codeDepositCost": "800600",
        "executionCost": "52268",
        "totalCost": "852868"
      },
      "external": {
        "BuyTickets(uint256)": "infinite",
        "CurrentWinningReward()": "2468",
        "DrawWinnerTicket()": "infinite",
        "IsWinner()": "2405",
        "RefundAll()": "infinite",
        "RemainingTickets()": "2472",
        "WithdrawCommission()": "infinite",
        "WithdrawWinnings()": "infinite",
        "checkWinningsAmount()": "2418",
        "duration()": "230",
        "expiration()": "2330",
        "getTickets()": "infinite",
        "getWinningsForAddress(address)": "2580",
        "lastWinner()": "2425",
        "lastWinnerAmount()": "2331",
        "lotteryOperator()": "2426",
        "maxTickets()": "251",
        "operatorTotalCommission()": "2329",
        "restartDraw()": "infinite",
        "ticketCommission()": "230",
        "ticketPrice()": "252",
        "tickets(uint256)": "4659",
        "winnings(address)": "2517"
      }
    },
    "methodIdentifiers": {
      "BuyTickets(uint256)": "59ab0306",
      "CurrentWinningReward()": "c6944fa0",
      "DrawWinnerTicket()": "4788af7c",
      "IsWinner()": "96c85ef3",
      "RefundAll()": "a88f4672",
      "RemainingTickets()": "93a563b5",
      "WithdrawCommission()": "35580df2",
      "WithdrawWinnings()": "71827b7b",
      "checkWinningsAmount()": "0789c607",
      "duration()": "0fb5a6b4",
      "expiration()": "4665096d",
      "getTickets()": "4ed02622",
      "getWinningsForAddress(address)": "dd64e534",
      "lastWinner()": "fe188184",
      "lastWinnerAmount()": "06f7f3bf",
      "lotteryOperator()": "5a58acdd",
      "maxTickets()": "9b894703",
      "operatorTotalCommission()": "ba946d79",
      "restartDraw()": "f2613269",
      "ticketCommission()": "6032a4f9",
      "ticketPrice()": "1209b1f6",
      "tickets(uint256)": "50b44712",
      "winnings(address)": "ea3a1499"
    }
  },
  "storageLayout": {
    "storage": [
      {
        "astId": 16,
        "contract": "Lottery.sol:Lottery",
        "label": "expiration",
        "offset": 0,
        "slot": "0",
        "type": "t_uint256"
      },
      {
        "astId": 18,
        "contract": "Lottery.sol:Lottery",
        "label": "lotteryOperator",
        "offset": 0,
        "slot": "1",
        "type": "t_address"
      },
      {
        "astId": 21,
        "contract": "Lottery.sol:Lottery",
        "label": "operatorTotalCommission",
        "offset": 0,
        "slot": "2",
        "type": "t_uint256"
      },
      {
        "astId": 23,
        "contract": "Lottery.sol:Lottery",
        "label": "lastWinner",
        "offset": 0,
        "slot": "3",
        "type": "t_address"
      },
      {
        "astId": 25,
        "contract": "Lottery.sol:Lottery",
        "label": "lastWinnerAmount",
        "offset": 0,
        "slot": "4",
        "type": "t_uint256"
      },
      {
        "astId": 29,
        "contract": "Lottery.sol:Lottery",
        "label": "winnings",
        "offset": 0,
        "slot": "5",
        "type": "t_mapping(t_address,t_uint256)"
      },
      {
        "astId": 32,
        "contract": "Lottery.sol:Lottery",
        "label": "tickets",
        "offset": 0,
        "slot": "6",
        "type": "t_array(t_address)dyn_storage"
      }
    ],
    "types": {
      "t_address": {
        "encoding": "inplace",
        "label": "address",
        "numberOfBytes": "20"
      },
      "t_array(t_address)dyn_storage": {
        "base": "t_address",
        "encoding": "dynamic_array",
        "label": "address[]",
        "numberOfBytes": "32"
      },
      "t_mapping(t_address,t_uint256)": {
        "encoding": "mapping",
        "key": "t_address",
        "label": "mapping(address => uint256)",
        "numberOfBytes": "32",
        "value": "t_uint256"
      },
      "t_uint256": {
        "encoding": "inplace",
        "label": "uint256",
        "numberOfBytes": "32"
      }
    }
  },
  "userdoc": {
    "kind": "user",
    "methods": {},
    "version": 1
  }
}